{
  "contractName": "LibAsset",
  "abi": [
    {
      "inputs": [],
      "name": "ERC1155_ASSET_CLASS",
      "outputs": [
        {
          "internalType": "bytes4",
          "name": "",
          "type": "bytes4"
        }
      ],
      "stateMutability": "view",
      "type": "function"
    },
    {
      "inputs": [],
      "name": "ERC1155_LAZY_ASSET_CLASS",
      "outputs": [
        {
          "internalType": "bytes4",
          "name": "",
          "type": "bytes4"
        }
      ],
      "stateMutability": "view",
      "type": "function"
    },
    {
      "inputs": [],
      "name": "ERC721_ASSET_CLASS",
      "outputs": [
        {
          "internalType": "bytes4",
          "name": "",
          "type": "bytes4"
        }
      ],
      "stateMutability": "view",
      "type": "function"
    },
    {
      "inputs": [],
      "name": "ERC721_LAZY_ASSET_CLASS",
      "outputs": [
        {
          "internalType": "bytes4",
          "name": "",
          "type": "bytes4"
        }
      ],
      "stateMutability": "view",
      "type": "function"
    },
    {
      "inputs": [],
      "name": "ETH_ASSET_CLASS",
      "outputs": [
        {
          "internalType": "bytes4",
          "name": "",
          "type": "bytes4"
        }
      ],
      "stateMutability": "view",
      "type": "function"
    }
  ],
  "bytecode": "0x610195610026600b82828239805160001a60731461001957fe5b30600052607381538281f3fe73000000000000000000000000000000000000000030146080604052600436106100615760003560e01c8063405bf2751461006657806390c20c431461008b57806394d5e89d14610093578063b4797da21461009b578063c214be59146100a3575b600080fd5b61006e6100ab565b604080516001600160e01b03199092168252519081900360200190f35b61006e6100cf565b61006e6100f3565b61006e610117565b61006e61013b565b7f973bb64086f173ec8099b7ed3d43da984f4a332e4417a08bc6a286e6402b058681565b7f1cdfaa400bc064c91b5cc20e571cfcc92103980be96e01fb36dda1962d8d78cb81565b7fd8f960c1450658267efb07308b4050c9e705cea25a53b560236c88cb149696be81565b7faaaebeba3810b1e6b70781f14b2d72c1cb89c0b2b320c43bb67ff79f562f5ff481565b7f73ad2146b3d3a286642c794379d750360a2d53a3459a11b3e5d6cc900f55f44a8156fea2646970667358221220267e378d9061c3e4463faab7971d4ac3518b6b28bf7b6f2c70b498b3f8bcaf4764736f6c63430007060033",
  "immutableReferences": {},
  "source": "// SPDX-License-Identifier: MIT\n\npragma solidity 0.7.6;\n\nlibrary LibAsset {\n    bytes4 constant public ETH_ASSET_CLASS = bytes4(keccak256(\"ETH\"));    \n    bytes4 constant public ERC721_ASSET_CLASS = bytes4(keccak256(\"ERC721\"));\n    bytes4 constant public ERC721_LAZY_ASSET_CLASS = bytes4(keccak256(\"ERC721_LAZY\")); \n    bytes4 constant public ERC1155_ASSET_CLASS = bytes4(keccak256(\"ERC1155\"));\n    bytes4 constant public ERC1155_LAZY_ASSET_CLASS = bytes4(keccak256(\"ERC1155_LAZY\")); \n    \n    bytes32 constant ASSET_TYPE_TYPEHASH = keccak256(\n        \"AssetType(bytes4 assetClass,bytes data)\"\n    );\n\n    bytes32 constant ASSET_TYPEHASH = keccak256(\n        \"Asset(AssetType assetType,uint256 value)AssetType(bytes4 assetClass,bytes data)\"\n    );\n\n    struct AssetType {\n        bytes4 assetClass;\n        bytes data;\n    }\n\n    struct Asset {\n        AssetType assetType;\n        uint value;\n    }\n\n    function hash(AssetType memory assetType) internal pure returns (bytes32) {\n        return keccak256(abi.encode(\n                ASSET_TYPE_TYPEHASH,\n                assetType.assetClass,\n                keccak256(assetType.data)\n            ));\n    }\n\n    function hash(Asset memory asset) internal pure returns (bytes32) {\n        return keccak256(abi.encode(\n                ASSET_TYPEHASH,\n                hash(asset.assetType),\n                asset.value\n            ));\n    }\n\n    function validation(Asset memory asset) internal pure {\n        require(asset.assetType.assetClass == ETH_ASSET_CLASS || asset.assetType.assetClass == ETH_ASSET_CLASS || asset.assetType.assetClass == ETH_ASSET_CLASS, \"Not Supported Asset\");\n    }\n}\n",
  "sourcePath": "/Volumes/Data/MetaSalt/market/contracts/common/lib/LibAsset.sol",
  "compiler": {
    "name": "solc",
    "version": "0.7.6+commit.7338295f.Emscripten.clang"
  },
  "schemaVersion": "3.4.5",
  "updatedAt": "2022-12-14T08:20:18.724Z",
  "devdoc": {
    "kind": "dev",
    "methods": {},
    "version": 1
  },
  "userdoc": {
    "kind": "user",
    "methods": {},
    "version": 1
  }
}