{
  "contractName": "LibOrderTest",
  "abi": [
    {
      "inputs": [
        {
          "components": [
            {
              "internalType": "address",
              "name": "maker",
              "type": "address"
            },
            {
              "components": [
                {
                  "components": [
                    {
                      "internalType": "bytes4",
                      "name": "assetClass",
                      "type": "bytes4"
                    },
                    {
                      "internalType": "bytes",
                      "name": "data",
                      "type": "bytes"
                    }
                  ],
                  "internalType": "struct LibAsset.AssetType",
                  "name": "assetType",
                  "type": "tuple"
                },
                {
                  "internalType": "uint256",
                  "name": "value",
                  "type": "uint256"
                }
              ],
              "internalType": "struct LibAsset.Asset",
              "name": "makeAsset",
              "type": "tuple"
            },
            {
              "internalType": "address",
              "name": "taker",
              "type": "address"
            },
            {
              "components": [
                {
                  "components": [
                    {
                      "internalType": "bytes4",
                      "name": "assetClass",
                      "type": "bytes4"
                    },
                    {
                      "internalType": "bytes",
                      "name": "data",
                      "type": "bytes"
                    }
                  ],
                  "internalType": "struct LibAsset.AssetType",
                  "name": "assetType",
                  "type": "tuple"
                },
                {
                  "internalType": "uint256",
                  "name": "value",
                  "type": "uint256"
                }
              ],
              "internalType": "struct LibAsset.Asset",
              "name": "takeAsset",
              "type": "tuple"
            },
            {
              "internalType": "bytes",
              "name": "data",
              "type": "bytes"
            }
          ],
          "internalType": "struct LibOrder.Order",
          "name": "order",
          "type": "tuple"
        }
      ],
      "name": "hashKey",
      "outputs": [
        {
          "internalType": "bytes32",
          "name": "",
          "type": "bytes32"
        }
      ],
      "stateMutability": "pure",
      "type": "function"
    }
  ],
  "bytecode": "0x608060405234801561001057600080fd5b50610443806100206000396000f3fe608060405234801561001057600080fd5b506004361061002b5760003560e01c8063d8d2262b14610030575b600080fd5b61004361003e3660046102ef565b610059565b604051610050919061032e565b60405180910390f35b600061006c6100678361035b565b610074565b90505b919050565b8051602082015151600091906100899061014a565b6060840151516100989061014a565b846080015160405160200180856001600160a01b0316815260200184815260200183815260200180602001828103825283818151815260200191508051906020019080838360005b838110156100f85781810151838201526020016100e0565b50505050905090810190601f1680156101255780820380516001836020036101000a031916815260200191505b5095505050505050604051602081830303815290604052805190602001209050919050565b8051602091820151805190830120604080517f452a0dc408cb0d27ffc3b3caff933a5208040a53a9dbecd8d89cad2c0d40e00c818601526001600160e01b031990931683820152606080840192909252805180840390920182526080909201909152805191012090565b80356001600160a01b038116811461006f57600080fd5b600082601f8301126101db578081fd5b813567ffffffffffffffff8111156101ef57fe5b610202601f8201601f1916602001610337565b818152846020838601011115610216578283fd5b816020850160208301379081016020019190915292915050565b60006040808385031215610242578182fd5b805181810167ffffffffffffffff828210818311171561025e57fe5b81845282945085358181111561027357600080fd5b860180880385131561028457600080fd5b60808401838110838211171561029657fe5b9094528335936001600160e01b0319851685146102b257600080fd5b938252602084013593818511156102c857600080fd5b6102d4888683016101cb565b60608501525050815260209384013593019290925292915050565b600060208284031215610300578081fd5b813567ffffffffffffffff811115610316578182fd5b820160a08185031215610327578182fd5b9392505050565b90815260200190565b60405181810167ffffffffffffffff8111828210171561035357fe5b604052919050565b600060a0823603121561036c578081fd5b61037660a0610337565b61037f836101b4565b8152602083013567ffffffffffffffff8082111561039b578384fd5b6103a736838701610230565b60208401526103b8604086016101b4565b604084015260608501359150808211156103d0578384fd5b6103dc36838701610230565b606084015260808501359150808211156103f4578384fd5b50610401368286016101cb565b6080830152509291505056fea264697066735822122050dbd8aa2ae849ee58a3d7896e69e56afc945b68ec35177d87200a71d86f5e1d64736f6c63430007060033",
  "immutableReferences": {},
  "source": "// SPDX-License-Identifier: MIT\n\npragma solidity 0.7.6;\npragma abicoder v2;\n\nimport \"../lib/LibOrder.sol\";\n\ncontract LibOrderTest {\n    function hashKey(LibOrder.Order calldata order) external pure returns (bytes32) {\n        return LibOrder.hashKey(order);\n    }\n}\n",
  "sourcePath": "/Volumes/Data/MetaSalt/market/contracts/common/test/LibOrderTest.sol",
  "compiler": {
    "name": "solc",
    "version": "0.7.6+commit.7338295f.Emscripten.clang"
  },
  "schemaVersion": "3.4.5",
  "updatedAt": "2022-12-14T08:20:18.742Z",
  "devdoc": {
    "kind": "dev",
    "methods": {},
    "version": 1
  },
  "userdoc": {
    "kind": "user",
    "methods": {},
    "version": 1
  }
}