{
  "contractName": "MarketCoreV2",
  "abi": [
    {
      "anonymous": false,
      "inputs": [
        {
          "indexed": false,
          "internalType": "bytes32",
          "name": "hash",
          "type": "bytes32"
        },
        {
          "indexed": false,
          "internalType": "address",
          "name": "maker",
          "type": "address"
        },
        {
          "components": [
            {
              "internalType": "bytes4",
              "name": "assetClass",
              "type": "bytes4"
            },
            {
              "internalType": "bytes",
              "name": "data",
              "type": "bytes"
            }
          ],
          "indexed": false,
          "internalType": "struct LibAsset.AssetType",
          "name": "makeAssetType",
          "type": "tuple"
        },
        {
          "components": [
            {
              "internalType": "bytes4",
              "name": "assetClass",
              "type": "bytes4"
            },
            {
              "internalType": "bytes",
              "name": "data",
              "type": "bytes"
            }
          ],
          "indexed": false,
          "internalType": "struct LibAsset.AssetType",
          "name": "takeAssetType",
          "type": "tuple"
        }
      ],
      "name": "Cancel",
      "type": "event"
    },
    {
      "anonymous": false,
      "inputs": [
        {
          "indexed": false,
          "internalType": "bytes32",
          "name": "leftHash",
          "type": "bytes32"
        },
        {
          "indexed": false,
          "internalType": "bytes32",
          "name": "rightHash",
          "type": "bytes32"
        },
        {
          "indexed": false,
          "internalType": "address",
          "name": "leftMaker",
          "type": "address"
        },
        {
          "indexed": false,
          "internalType": "address",
          "name": "rightMaker",
          "type": "address"
        },
        {
          "components": [
            {
              "internalType": "bytes4",
              "name": "assetClass",
              "type": "bytes4"
            },
            {
              "internalType": "bytes",
              "name": "data",
              "type": "bytes"
            }
          ],
          "indexed": false,
          "internalType": "struct LibAsset.AssetType",
          "name": "leftAsset",
          "type": "tuple"
        },
        {
          "components": [
            {
              "internalType": "bytes4",
              "name": "assetClass",
              "type": "bytes4"
            },
            {
              "internalType": "bytes",
              "name": "data",
              "type": "bytes"
            }
          ],
          "indexed": false,
          "internalType": "struct LibAsset.AssetType",
          "name": "rightAsset",
          "type": "tuple"
        }
      ],
      "name": "OrderCompleted",
      "type": "event"
    },
    {
      "anonymous": false,
      "inputs": [
        {
          "indexed": true,
          "internalType": "address",
          "name": "previousOwner",
          "type": "address"
        },
        {
          "indexed": true,
          "internalType": "address",
          "name": "newOwner",
          "type": "address"
        }
      ],
      "name": "OwnershipTransferred",
      "type": "event"
    },
    {
      "anonymous": false,
      "inputs": [
        {
          "indexed": false,
          "internalType": "address",
          "name": "account",
          "type": "address"
        }
      ],
      "name": "Paused",
      "type": "event"
    },
    {
      "anonymous": false,
      "inputs": [
        {
          "indexed": false,
          "internalType": "address",
          "name": "account",
          "type": "address"
        }
      ],
      "name": "Unpaused",
      "type": "event"
    },
    {
      "inputs": [],
      "name": "defaultFeeReceiver",
      "outputs": [
        {
          "internalType": "address",
          "name": "",
          "type": "address"
        }
      ],
      "stateMutability": "view",
      "type": "function"
    },
    {
      "inputs": [
        {
          "internalType": "bytes32",
          "name": "",
          "type": "bytes32"
        }
      ],
      "name": "orderState",
      "outputs": [
        {
          "internalType": "uint256",
          "name": "",
          "type": "uint256"
        }
      ],
      "stateMutability": "view",
      "type": "function"
    },
    {
      "inputs": [],
      "name": "owner",
      "outputs": [
        {
          "internalType": "address",
          "name": "",
          "type": "address"
        }
      ],
      "stateMutability": "view",
      "type": "function"
    },
    {
      "inputs": [],
      "name": "paused",
      "outputs": [
        {
          "internalType": "bool",
          "name": "",
          "type": "bool"
        }
      ],
      "stateMutability": "view",
      "type": "function"
    },
    {
      "inputs": [],
      "name": "protocolFee",
      "outputs": [
        {
          "internalType": "uint256",
          "name": "",
          "type": "uint256"
        }
      ],
      "stateMutability": "view",
      "type": "function"
    },
    {
      "inputs": [],
      "name": "renounceOwnership",
      "outputs": [],
      "stateMutability": "nonpayable",
      "type": "function"
    },
    {
      "inputs": [],
      "name": "royaltyRegister",
      "outputs": [
        {
          "internalType": "address",
          "name": "",
          "type": "address"
        }
      ],
      "stateMutability": "view",
      "type": "function"
    },
    {
      "inputs": [
        {
          "internalType": "address payable",
          "name": "newDefaultFeeReceiver",
          "type": "address"
        }
      ],
      "name": "setDefaultFeeReceiver",
      "outputs": [],
      "stateMutability": "nonpayable",
      "type": "function"
    },
    {
      "inputs": [
        {
          "internalType": "uint256",
          "name": "newProtocolFee",
          "type": "uint256"
        }
      ],
      "name": "setProtocolFee",
      "outputs": [],
      "stateMutability": "nonpayable",
      "type": "function"
    },
    {
      "inputs": [
        {
          "internalType": "address",
          "name": "_newRoyaltyRegister",
          "type": "address"
        }
      ],
      "name": "setRoyaltyRegister",
      "outputs": [],
      "stateMutability": "nonpayable",
      "type": "function"
    },
    {
      "inputs": [
        {
          "internalType": "address",
          "name": "transferERC721Proxy",
          "type": "address"
        },
        {
          "internalType": "address",
          "name": "transferERC1155Proxy",
          "type": "address"
        }
      ],
      "name": "setTransferProxy",
      "outputs": [],
      "stateMutability": "nonpayable",
      "type": "function"
    },
    {
      "inputs": [
        {
          "internalType": "address",
          "name": "newOwner",
          "type": "address"
        }
      ],
      "name": "transferOwnership",
      "outputs": [],
      "stateMutability": "nonpayable",
      "type": "function"
    },
    {
      "inputs": [],
      "name": "fundContract",
      "outputs": [],
      "stateMutability": "payable",
      "type": "function"
    },
    {
      "inputs": [
        {
          "internalType": "uint256",
          "name": "value",
          "type": "uint256"
        }
      ],
      "name": "withdraw",
      "outputs": [],
      "stateMutability": "nonpayable",
      "type": "function"
    },
    {
      "inputs": [
        {
          "internalType": "uint256",
          "name": "amount",
          "type": "uint256"
        }
      ],
      "name": "withdrawTest",
      "outputs": [],
      "stateMutability": "nonpayable",
      "type": "function"
    },
    {
      "inputs": [
        {
          "components": [
            {
              "internalType": "address",
              "name": "maker",
              "type": "address"
            },
            {
              "components": [
                {
                  "components": [
                    {
                      "internalType": "bytes4",
                      "name": "assetClass",
                      "type": "bytes4"
                    },
                    {
                      "internalType": "bytes",
                      "name": "data",
                      "type": "bytes"
                    }
                  ],
                  "internalType": "struct LibAsset.AssetType",
                  "name": "assetType",
                  "type": "tuple"
                },
                {
                  "internalType": "uint256",
                  "name": "value",
                  "type": "uint256"
                }
              ],
              "internalType": "struct LibAsset.Asset",
              "name": "makeAsset",
              "type": "tuple"
            },
            {
              "internalType": "address",
              "name": "taker",
              "type": "address"
            },
            {
              "components": [
                {
                  "components": [
                    {
                      "internalType": "bytes4",
                      "name": "assetClass",
                      "type": "bytes4"
                    },
                    {
                      "internalType": "bytes",
                      "name": "data",
                      "type": "bytes"
                    }
                  ],
                  "internalType": "struct LibAsset.AssetType",
                  "name": "assetType",
                  "type": "tuple"
                },
                {
                  "internalType": "uint256",
                  "name": "value",
                  "type": "uint256"
                }
              ],
              "internalType": "struct LibAsset.Asset",
              "name": "takeAsset",
              "type": "tuple"
            },
            {
              "internalType": "bytes",
              "name": "data",
              "type": "bytes"
            }
          ],
          "internalType": "struct LibOrder.Order",
          "name": "order",
          "type": "tuple"
        }
      ],
      "name": "cancel",
      "outputs": [],
      "stateMutability": "nonpayable",
      "type": "function"
    },
    {
      "inputs": [
        {
          "components": [
            {
              "internalType": "address",
              "name": "maker",
              "type": "address"
            },
            {
              "components": [
                {
                  "components": [
                    {
                      "internalType": "bytes4",
                      "name": "assetClass",
                      "type": "bytes4"
                    },
                    {
                      "internalType": "bytes",
                      "name": "data",
                      "type": "bytes"
                    }
                  ],
                  "internalType": "struct LibAsset.AssetType",
                  "name": "assetType",
                  "type": "tuple"
                },
                {
                  "internalType": "uint256",
                  "name": "value",
                  "type": "uint256"
                }
              ],
              "internalType": "struct LibAsset.Asset",
              "name": "makeAsset",
              "type": "tuple"
            },
            {
              "internalType": "address",
              "name": "taker",
              "type": "address"
            },
            {
              "components": [
                {
                  "components": [
                    {
                      "internalType": "bytes4",
                      "name": "assetClass",
                      "type": "bytes4"
                    },
                    {
                      "internalType": "bytes",
                      "name": "data",
                      "type": "bytes"
                    }
                  ],
                  "internalType": "struct LibAsset.AssetType",
                  "name": "assetType",
                  "type": "tuple"
                },
                {
                  "internalType": "uint256",
                  "name": "value",
                  "type": "uint256"
                }
              ],
              "internalType": "struct LibAsset.Asset",
              "name": "takeAsset",
              "type": "tuple"
            },
            {
              "internalType": "bytes",
              "name": "data",
              "type": "bytes"
            }
          ],
          "internalType": "struct LibOrder.Order",
          "name": "orderLeft",
          "type": "tuple"
        },
        {
          "internalType": "bytes",
          "name": "signatureLeft",
          "type": "bytes"
        },
        {
          "components": [
            {
              "internalType": "address",
              "name": "maker",
              "type": "address"
            },
            {
              "components": [
                {
                  "components": [
                    {
                      "internalType": "bytes4",
                      "name": "assetClass",
                      "type": "bytes4"
                    },
                    {
                      "internalType": "bytes",
                      "name": "data",
                      "type": "bytes"
                    }
                  ],
                  "internalType": "struct LibAsset.AssetType",
                  "name": "assetType",
                  "type": "tuple"
                },
                {
                  "internalType": "uint256",
                  "name": "value",
                  "type": "uint256"
                }
              ],
              "internalType": "struct LibAsset.Asset",
              "name": "makeAsset",
              "type": "tuple"
            },
            {
              "internalType": "address",
              "name": "taker",
              "type": "address"
            },
            {
              "components": [
                {
                  "components": [
                    {
                      "internalType": "bytes4",
                      "name": "assetClass",
                      "type": "bytes4"
                    },
                    {
                      "internalType": "bytes",
                      "name": "data",
                      "type": "bytes"
                    }
                  ],
                  "internalType": "struct LibAsset.AssetType",
                  "name": "assetType",
                  "type": "tuple"
                },
                {
                  "internalType": "uint256",
                  "name": "value",
                  "type": "uint256"
                }
              ],
              "internalType": "struct LibAsset.Asset",
              "name": "takeAsset",
              "type": "tuple"
            },
            {
              "internalType": "bytes",
              "name": "data",
              "type": "bytes"
            }
          ],
          "internalType": "struct LibOrder.Order",
          "name": "orderRight",
          "type": "tuple"
        },
        {
          "internalType": "bytes",
          "name": "signatureRight",
          "type": "bytes"
        }
      ],
      "name": "matchOrders",
      "outputs": [],
      "stateMutability": "payable",
      "type": "function"
    },
    {
      "inputs": [
        {
          "components": [
            {
              "internalType": "bytes4",
              "name": "assetClass",
              "type": "bytes4"
            },
            {
              "internalType": "bytes",
              "name": "data",
              "type": "bytes"
            }
          ],
          "internalType": "struct LibAsset.AssetType",
          "name": "leftAssetType",
          "type": "tuple"
        },
        {
          "components": [
            {
              "internalType": "bytes4",
              "name": "assetClass",
              "type": "bytes4"
            },
            {
              "internalType": "bytes",
              "name": "data",
              "type": "bytes"
            }
          ],
          "internalType": "struct LibAsset.AssetType",
          "name": "rightAssetType",
          "type": "tuple"
        }
      ],
      "name": "matchAssets",
      "outputs": [
        {
          "components": [
            {
              "internalType": "bytes4",
              "name": "assetClass",
              "type": "bytes4"
            },
            {
              "internalType": "bytes",
              "name": "data",
              "type": "bytes"
            }
          ],
          "internalType": "struct LibAsset.AssetType",
          "name": "",
          "type": "tuple"
        }
      ],
      "stateMutability": "pure",
      "type": "function"
    }
  ],
  "bytecode": "0x608060405234801561001057600080fd5b50612f3c806100206000396000f3fe6080604052600436106101095760003560e01c80639f81cd1311610095578063bd097e2111610064578063bd097e21146102ab578063d56afca6146102b3578063eff55e72146102d3578063f2fde38b146102f3578063fa43e5301461031357610109565b80639f81cd1314610234578063aab14d0414610249578063b0e21e8a14610276578063b4a7819f1461028b57610109565b80635c975abb116100dc5780635c975abb1461019b5780636d3f7cb0146101bd578063715018a6146101ea578063787dce3d146101ff5780638da5cb5b1461021f57610109565b80631cdfe3d81461010e5780632e1a7d4d146101305780633abf6fd414610150578063481fd5051461017b575b600080fd5b34801561011a57600080fd5b5061012e61012936600461247b565b610326565b005b34801561013c57600080fd5b5061012e61014b366004612769565b6103ab565b34801561015c57600080fd5b5061016561041a565b6040516101729190612917565b60405180910390f35b34801561018757600080fd5b5061012e61019636600461247b565b61042a565b3480156101a757600080fd5b506101b06104af565b60405161017291906129a8565b3480156101c957600080fd5b506101dd6101d8366004612781565b6104b8565b6040516101729190612c7e565b3480156101f657600080fd5b5061012e6105ed565b34801561020b57600080fd5b5061012e61021a366004612769565b610699565b34801561022b57600080fd5b50610165610701565b34801561024057600080fd5b50610165610710565b34801561025557600080fd5b50610269610264366004612769565b610720565b6040516101729190612dad565b34801561028257600080fd5b50610269610733565b34801561029757600080fd5b5061012e6102a6366004612769565b61073a565b61012e610825565b3480156102bf57600080fd5b5061012e6102ce36600461266e565b610827565b3480156102df57600080fd5b5061012e6102ee3660046127d8565b610906565b3480156102ff57600080fd5b5061012e61030e36600461247b565b6109ae565b61012e61032136600461280b565b610ab1565b61032e610cc0565b6001600160a01b031661033f610701565b6001600160a01b031614610388576040805162461bcd60e51b81526020600482018190526024820152600080516020612ee7833981519152604482015290519081900360640190fd5b61013080546001600160a01b0319166001600160a01b0392909216919091179055565b6103b3610cc0565b6001600160a01b03166103c4610701565b6001600160a01b03161461040d576040805162461bcd60e51b81526020600482018190526024820152600080516020612ee7833981519152604482015290519081900360640190fd5b6104173382610cc4565b50565b610130546001600160a01b031681565b610432610cc0565b6001600160a01b0316610443610701565b6001600160a01b03161461048c576040805162461bcd60e51b81526020600482018190526024820152600080516020612ee7833981519152604482015290519081900360640190fd5b61013280546001600160a01b0319166001600160a01b0392909216919091179055565b60335460ff1690565b6104c06121ac565b81516001600160e01b0319166339d690a360e11b14806104f1575081516001600160e01b03191663d8f960c160e01b145b8061050d575081516001600160e01b03191663025ceed960e61b145b80610528575081516001600160e01b03191662737ea960e61b145b156105c35760008084602001518060200190518101906105489190612641565b9150915060008085602001518060200190518101906105679190612641565b91509150816001600160a01b0316846001600160a01b031614801561058b57508083145b156105be5750506040805180820190915284516001600160e01b03191681526020808601519082015292506105e7915050565b505050505b50604080518082018252600080825282516020818101909452908152918101919091525b92915050565b6105f5610cc0565b6001600160a01b0316610606610701565b6001600160a01b03161461064f576040805162461bcd60e51b81526020600482018190526024820152600080516020612ee7833981519152604482015290519081900360640190fd5b60fd546040516000916001600160a01b0316907f8be0079c531659141344cd1fd0a4f28419497f9722a3daafe3b4186f6b6457e0908390a360fd80546001600160a01b0319169055565b6106a1610cc0565b6001600160a01b03166106b2610701565b6001600160a01b0316146106fb576040805162461bcd60e51b81526020600482018190526024820152600080516020612ee7833981519152604482015290519081900360640190fd5b61012f55565b60fd546001600160a01b031690565b610132546001600160a01b031681565b6101606020526000908152604090205481565b61012f5481565b610742610cc0565b6001600160a01b0316610753610701565b6001600160a01b03161461079c576040805162461bcd60e51b81526020600482018190526024820152600080516020612ee7833981519152604482015290519081900360640190fd5b6000336001600160a01b0316826040516107b590612914565b60006040518083038185875af1925050503d80600081146107f2576040519150601f19603f3d011682016040523d82523d6000602084013e6107f7565b606091505b50509050806108215760405162461bcd60e51b815260040161081890612bed565b60405180910390fd5b5050565b565b61082f610cc0565b6001600160a01b0316610840610701565b6001600160a01b031614610889576040805162461bcd60e51b81526020600482018190526024820152600080516020612ee7833981519152604482015290519081900360640190fd5b6101316020527ffd23a7b9b5314a90813df2b64e60502a6b31b56b5df0686ee0049c8f7717bf7980546001600160a01b039384166001600160a01b03199182161790915563025ceed960e61b6000527f63c5e593bf2ee54e7cba16647235067582c7e8fc237b6736e61c9d87d0578cf78054929093169116179055565b80516001600160a01b0316610919610cc0565b6001600160a01b03161461093f5760405162461bcd60e51b815260040161081890612c59565b600061094a82610d62565b60008181526101606020908152604091829020600390558451908501515160608601515192519394507fbbdc98cb2835f4f846e6a63700d0498b4674f0e8858fd50c6379314227afa04e936109a293869392916129b3565b60405180910390a15050565b6109b6610cc0565b6001600160a01b03166109c7610701565b6001600160a01b031614610a10576040805162461bcd60e51b81526020600482018190526024820152600080516020612ee7833981519152604482015290519081900360640190fd5b6001600160a01b038116610a555760405162461bcd60e51b8152600401808060200182810382526026815260200180612e5c6026913960400191505060405180910390fd5b60fd546040516001600160a01b038084169216907f8be0079c531659141344cd1fd0a4f28419497f9722a3daafe3b4186f6b6457e090600090a360fd80546001600160a01b0319166001600160a01b0392909216919091179055565b60026099541415610b09576040805162461bcd60e51b815260206004820152601f60248201527f5265656e7472616e637947756172643a207265656e7472616e742063616c6c00604482015290519081900360640190fd5b6002609955602082015151516001600160e01b0319166355575f5d60e11b14610b445760405162461bcd60e51b815260040161081890612a89565b606084015151516001600160e01b0319166355575f5d60e11b14610b7a5760405162461bcd60e51b815260040161081890612a89565b60408401516001600160a01b031615610ba55760405162461bcd60e51b815260040161081890612c16565b60408201516001600160a01b031615610bd05760405162461bcd60e51b815260040161081890612adf565b81516001600160a01b03163314610bf95760405162461bcd60e51b815260040161081890612ab5565b3484606001516020015114610c205760405162461bcd60e51b815260040161081890612a52565b610c2a8484610e39565b610c348282610e39565b610c3e8483610e7e565b5050610c4a8483610f18565b6000610c5585610d62565b90506000610c6284610d62565b8651855160208901515160608a0151516040519495507f7980e0a70d0b16f81972215bd88d02e4599de4af5a3c8220130b37909e4da6b794610cab9488948894919390926129fa565b60405180910390a15050600160995550505050565b3390565b6040516000906001600160a01b0384169083908381818185875af1925050503d8060008114610d0f576040519150601f19603f3d011682016040523d82523d6000602084013e610d14565b606091505b5050905080610d5d576040805162461bcd60e51b815260206004820152601060248201526f7472616e73666572206661696c65643160801b604482015290519081900360640190fd5b505050565b805160208201515160009190610d7790611514565b606084015151610d8690611514565b846080015160405160200180856001600160a01b0316815260200184815260200183815260200180602001828103825283818151815260200191508051906020019080838360005b83811015610de6578181015183820152602001610dce565b50505050905090810190601f168015610e135780820380516001836020036101000a031916815260200191505b50955050505050506040516020818303038152906040528051906020012090505b919050565b6000610e4483610d62565b6000818152610160602052604090205490915015610e745760405162461bcd60e51b815260040161081890612b91565b610d5d838361157e565b610e866121ac565b610e8e6121ac565b602084015151606084015151610ea491906104b8565b80519092506001600160e01b031916610ecf5760405162461bcd60e51b815260040161081890612bc1565b606084015151602084015151610ee591906104b8565b80519091506001600160e01b03191615610f115760405162461bcd60e51b815260040161081890612bc1565b9250929050565b8151815160608401516020015161012f54600090610f45906103e890610f3f908590611600565b90611660565b90506000610f5383836116c7565b61013054909150610f6d906001600160a01b031683610cc4565b6020870151515160609081906001600160e01b0319166339d690a360e11b14156110f057610fa089602001518888611724565b610fae8960200151866117c9565b8151909350909150151580611028575080516001148015610ff55750866001600160a01b031681600081518110610fe157fe5b60200260200101516001600160a01b031614155b8015611028575060006001600160a01b03168160008151811061101457fe5b60200260200101516001600160a01b031614155b156110eb5760005b81518110156110e95760006001600160a01b031682828151811061105057fe5b60200260200101516001600160a01b0316141580156110825750600083828151811061107857fe5b6020026020010151115b156110e15782818151811061109357fe5b6020026020010151840393506110e18382815181106110ae57fe5b60200260200101518383815181106110c257fe5b60200260200101516001600160a01b03166118a990919063ffffffff16565b600101611030565b505b6114f0565b602089015151516001600160e01b03191663d8f960c160e01b14156112345761111e89602001518888611942565b61112c8960200151866119ba565b81519093509091501515806111a65750805160011480156111735750866001600160a01b03168160008151811061115f57fe5b60200260200101516001600160a01b031614155b80156111a6575060006001600160a01b03168160008151811061119257fe5b60200260200101516001600160a01b031614155b156110eb5760005b81518110156110e95760006001600160a01b03168282815181106111ce57fe5b60200260200101516001600160a01b031614158015611200575060008382815181106111f657fe5b6020026020010151115b1561122c5782818151811061121157fe5b60200260200101518403935061122c8382815181106110ae57fe5b6001016111ae565b602089015151516001600160e01b03191663025ceed960e61b14156113ab5761126289602001518888611a3a565b611270896020015186611a93565b81519093509091501515806112ea5750805160011480156112b75750866001600160a01b0316816000815181106112a357fe5b60200260200101516001600160a01b031614155b80156112ea575060006001600160a01b0316816000815181106112d657fe5b60200260200101516001600160a01b031614155b156110eb5760005b81518110156110e95760006001600160a01b031682828151811061131257fe5b60200260200101516001600160a01b0316141580156113445750600083828151811061133a57fe5b6020026020010151115b156113a35782818151811061135557fe5b6020026020010151840393506113a383828151811061137057fe5b602002602001015183838151811061138457fe5b60200260200101516001600160a01b0316611ab590919063ffffffff16565b6001016112f2565b602089015151516001600160e01b03191662737ea960e61b14156114f0576113d889602001518888611b4e565b6113e6896020015186611ba7565b815190935090915015158061146057508051600114801561142d5750866001600160a01b03168160008151811061141957fe5b60200260200101516001600160a01b031614155b8015611460575060006001600160a01b03168160008151811061144c57fe5b60200260200101516001600160a01b031614155b156114f05760005b81518110156114ee5760006001600160a01b031682828151811061148857fe5b60200260200101516001600160a01b0316141580156114ba575060008382815181106114b057fe5b6020026020010151115b156114e6578281815181106114cb57fe5b6020026020010151840393506114e683828151811061137057fe5b600101611468565b505b8215611509576115096001600160a01b03881684611bc9565b505050505050505050565b8051602091820151805190830120604080517f452a0dc408cb0d27ffc3b3caff933a5208040a53a9dbecd8d89cad2c0d40e00c818601526001600160e01b031990931683820152606080840192909252805180840390920182526080909201909152805191012090565b81516001600160a01b0316611591610cc0565b6001600160a01b0316146108215760006115aa83611c62565b905060008251604114156115ce576115cb836115c584611d17565b90611d63565b90505b83516001600160a01b038281169116146115fa5760405162461bcd60e51b815260040161081890612b23565b50505050565b60008261160f575060006105e7565b8282028284828161161c57fe5b04146116595760405162461bcd60e51b8152600401808060200182810382526021815260200180612ec66021913960400191505060405180910390fd5b9392505050565b60008082116116b6576040805162461bcd60e51b815260206004820152601a60248201527f536166654d6174683a206469766973696f6e206279207a65726f000000000000604482015290519081900360640190fd5b8183816116bf57fe5b049392505050565b60008282111561171e576040805162461bcd60e51b815260206004820152601e60248201527f536166654d6174683a207375627472616374696f6e206f766572666c6f770000604482015290519081900360640190fd5b50900390565b6000808460000151602001518060200190518101906117439190612641565b91509150846020015160011461176b5760405162461bcd60e51b815260040161081890612b65565b6040516323b872dd60e01b81526001600160a01b038316906323b872dd9061179b9087908790869060040161292b565b600060405180830381600087803b1580156117b557600080fd5b505af1158015611509573d6000803e3d6000fd5b60608083602001516001146117f05760405162461bcd60e51b815260040161081890612b65565b60008085600001516020015180602001905181019061180f9190612641565b61013254604051630f84100560e21b81529294509092506001600160a01b031690633e1040149061184890859085908a90600401612987565b60006040518083038186803b15801561186057600080fd5b505afa158015611874573d6000803e3d6000fd5b505050506040513d6000823e601f3d908101601f1916820160405261189c91908101906126a6565b9097909650945050505050565b6040516000906001600160a01b0384169083908381818185875af1925050503d80600081146118f4576040519150601f19603f3d011682016040523d82523d6000602084013e6118f9565b606091505b5050905080610d5d576040805162461bcd60e51b815260206004820152601060248201526f3a3930b739b332b9103330b4b632b21960811b604482015290519081900360640190fd5b82602001516001146119665760405162461bcd60e51b815260040161081890612b65565b600080846000015160200151806020019051810190611985919061256a565b6040516383adacb560e01b815291935091506001600160a01b038316906383adacb59061179b90849088908890600401612d2c565b60608083602001516001146119e15760405162461bcd60e51b815260040161081890612b65565b600080856000015160200151806020019051810190611a00919061256a565b610132548151604051630f84100560e21b81529395509193506001600160a01b031691633e10401491611848918691908a90600401612987565b600080846000015160200151806020019051810190611a599190612641565b91509150816001600160a01b031663f242432a85858489602001516040518563ffffffff1660e01b815260040161179b949392919061294f565b60608060008085600001516020015180602001905181019061180f9190612641565b6040516000906001600160a01b0384169083908381818185875af1925050503d8060008114611b00576040519150601f19603f3d011682016040523d82523d6000602084013e611b05565b606091505b5050905080610d5d576040805162461bcd60e51b815260206004820152601060248201526f7472616e73666572206661696c65643360801b604482015290519081900360640190fd5b600080846000015160200151806020019051810190611b6d9190612497565b91509150816001600160a01b031663f8786f0f82868689602001516040518563ffffffff1660e01b815260040161179b9493929190612c91565b606080600080856000015160200151806020019051810190611a009190612497565b6040516000906001600160a01b0384169083908381818185875af1925050503d8060008114611c14576040519150601f19603f3d011682016040523d82523d6000602084013e611c19565b606091505b5050905080610d5d576040805162461bcd60e51b815260206004820152601060248201526f1d1c985b9cd9995c8819985a5b19590d60821b604482015290519081900360640190fd5b60007f74841602ef8bc0259a135b606bb44132c0ebfdc1466501e566cd8098c5490c2c8260000151611c978460200151611de3565b8460400151611ca98660600151611de3565b86608001518051906020012060405160200180878152602001866001600160a01b03168152602001858152602001846001600160a01b031681526020018381526020018281526020019650505050505050604051602081830303815290604052805190602001209050919050565b6000611d21611e53565b82604051602001808061190160f01b81525060020183815260200182815260200192505050604051602081830303815290604052805190602001209050919050565b60008151604114611dbb576040805162461bcd60e51b815260206004820152601f60248201527f45434453413a20696e76616c6964207369676e6174757265206c656e67746800604482015290519081900360640190fd5b60208201516040830151606084015160001a611dd986828585611e93565b9695505050505050565b60007fdb6f72e915676cfc289da13bc4ece054fd17b1df6d77ffc4a60510718c236b08611e138360000151611514565b8360200151604051602001808481526020018381526020018281526020019350505050604051602081830303815290604052805190602001209050919050565b6000611e8e7f8b73c3c69bb8fe3d512ecc4cf759cc79239f7b179b0ffacaa9a75d522b39400f611e816120e9565b611e896120ef565b6120f5565b905090565b60007f7fffffffffffffffffffffffffffffff5d576e7357a4501ddfe92f46681b20a0821115611ef45760405162461bcd60e51b8152600401808060200182810382526022815260200180612e826022913960400191505060405180910390fd5b6000601e8560ff161115611fce576004850360ff16601b1480611f1d57506004850360ff16601c145b611f585760405162461bcd60e51b8152600401808060200182810382526022815260200180612ea46022913960400191505060405180910390fd5b6001611f6387612157565b60048703868660405160008152602001604052604051808581526020018460ff1681526020018381526020018281526020019450505050506020604051602081039080840390855afa158015611fbd573d6000803e3d6000fd5b505050602060405103519050612085565b8460ff16601b1480611fe357508460ff16601c145b61201e5760405162461bcd60e51b8152600401808060200182810382526022815260200180612ea46022913960400191505060405180910390fd5b60018686868660405160008152602001604052604051808581526020018460ff1681526020018381526020018281526020019450505050506020604051602081039080840390855afa158015612078573d6000803e3d6000fd5b5050506020604051035190505b6001600160a01b0381166120e0576040805162461bcd60e51b815260206004820152601860248201527f45434453413a20696e76616c6964207369676e61747572650000000000000000604482015290519081900360640190fd5b95945050505050565b60655490565b60665490565b60008383836121026121a8565b3060405160200180868152602001858152602001848152602001838152602001826001600160a01b03168152602001955050505050506040516020818303038152906040528051906020012090509392505050565b604080517f19457468657265756d205369676e6564204d6573736167653a0a333200000000602080830191909152603c8083019490945282518083039094018452605c909101909152815191012090565b4690565b60408051808201909152600081526060602082015290565b8035610e3481612e46565b8051610e3481612e46565b600082601f8301126121ea578081fd5b815160206121ff6121fa83612dda565b612db6565b828152818101908583018385028701840188101561221b578586fd5b855b858110156122395781518452928401929084019060010161221d565b5090979650505050505050565b600082601f830112612256578081fd5b81356122646121fa82612df8565b818152846020838601011115612278578283fd5b816020850160208301379081016020019190915292915050565b600082601f8301126122a2578081fd5b81516122b06121fa82612df8565b8181528460208386010111156122c4578283fd5b6122d5826020830160208701612e1a565b949350505050565b6000604082840312156122ee578081fd5b6040516040810167ffffffffffffffff828210818311171561230c57fe5b816040528293508435915063ffffffff60e01b8216821461232c57600080fd5b9082526020840135908082111561234257600080fd5b5061234f85828601612246565b6020830152505092915050565b60006040828403121561236d578081fd5b6040516040810167ffffffffffffffff828210818311171561238b57fe5b8160405282935084359150808211156123a357600080fd5b506123b0858286016122dd565b825250602083013560208201525092915050565b600060a082840312156123d5578081fd5b6123df60a0612db6565b90506123ea826121c4565b8152602082013567ffffffffffffffff8082111561240757600080fd5b6124138583860161235c565b6020840152612424604085016121c4565b6040840152606084013591508082111561243d57600080fd5b6124498583860161235c565b6060840152608084013591508082111561246257600080fd5b5061246f84828501612246565b60808301525092915050565b60006020828403121561248c578081fd5b813561165981612e46565b600080604083850312156124a9578081fd5b82516124b481612e46565b602084015190925067ffffffffffffffff808211156124d1578283fd5b9084019060c082870312156124e4578283fd5b6124ee60c0612db6565b82518152602083015182811115612503578485fd5b61250f88828601612292565b6020830152506040830151604082015261252b606084016121cf565b60608201526080830151608082015260a08301518281111561254b578485fd5b61255788828601612292565b60a0830152508093505050509250929050565b6000806040838503121561257c578182fd5b825161258781612e46565b602084015190925067ffffffffffffffff808211156125a4578283fd5b9084019060a082870312156125b7578283fd5b60405160a0810181811083821117156125cc57fe5b604052825181526020830151828111156125e4578485fd5b6125f088828601612292565b602083015250612602604084016121cf565b604082015260608301516060820152608083015182811115612622578485fd5b61262e88828601612292565b6080830152508093505050509250929050565b60008060408385031215612653578182fd5b825161265e81612e46565b6020939093015192949293505050565b60008060408385031215612680578182fd5b823561268b81612e46565b9150602083013561269b81612e46565b809150509250929050565b600080604083850312156126b8578182fd5b825167ffffffffffffffff808211156126cf578384fd5b818501915085601f8301126126e2578384fd5b815160206126f26121fa83612dda565b82815281810190858301838502870184018b101561270e578889fd5b8896505b8487101561273957805161272581612e46565b835260019690960195918301918301612712565b5091880151919650909350505080821115612752578283fd5b5061275f858286016121da565b9150509250929050565b60006020828403121561277a578081fd5b5035919050565b60008060408385031215612793578182fd5b823567ffffffffffffffff808211156127aa578384fd5b6127b6868387016122dd565b935060208501359150808211156127cb578283fd5b5061275f858286016122dd565b6000602082840312156127e9578081fd5b813567ffffffffffffffff8111156127ff578182fd5b6122d5848285016123c4565b60008060008060808587031215612820578182fd5b843567ffffffffffffffff80821115612837578384fd5b612843888389016123c4565b95506020870135915080821115612858578384fd5b61286488838901612246565b94506040870135915080821115612879578384fd5b612885888389016123c4565b9350606087013591508082111561289a578283fd5b506128a787828801612246565b91505092959194509250565b6001600160a01b03169052565b600081518084526128d8816020860160208601612e1a565b601f01601f19169290920160200192915050565b600063ffffffff60e01b82511683526020820151604060208501526122d560408501826128c0565b90565b6001600160a01b0391909116815260200190565b6001600160a01b039384168152919092166020820152604081019190915260600190565b6001600160a01b0394851681529290931660208301526040820152606081019190915260a06080820181905260009082015260c00190565b6001600160a01b039390931683526020830191909152604082015260600190565b901515815260200190565b8481526001600160a01b03841660208201526080604082018190526000906129dd908301856128ec565b82810360608401526129ef81856128ec565b979650505050505050565b868152602081018690526001600160a01b0385811660408301528416606082015260c060808201819052600090612a33908301856128ec565b82810360a0840152612a4581856128ec565b9998505050505050505050565b60208082526018908201527f70726963652073686f756c6420626520636f7272656374210000000000000000604082015260600190565b60208082526012908201527137b7363c9022aa241039bab83837b93a399760711b604082015260600190565b60208082526010908201526f73686f756c642062652062757965722160801b604082015260600190565b60208082526024908201527f72696768744f726465722e74616b657220766572696669636174696f6e2066616040820152631a5b195960e21b606082015260800190565b60208082526022908201527f6f72646572207369676e617475726520766572696669636174696f6e2065727260408201526137b960f11b606082015260800190565b60208082526012908201527132b9319b9918903b30b63ab29032b93937b960711b604082015260600190565b60208082526016908201527527b93232b91029b437bab632103132902b30b634b21760511b604082015260600190565b6020808252601290820152710c2e6e6cae8e640c8dedc4ee840dac2e8c6d60731b604082015260600190565b6020808252600f908201526e1d1c985b9cd9995c8819985a5b1959608a1b604082015260600190565b60208082526023908201527f6c6566744f726465722e74616b657220766572696669636174696f6e206661696040820152621b195960ea1b606082015260800190565b6020808252600b908201526a3737ba10309036b0b5b2b960a91b604082015260600190565b60006020825261165960208301846128ec565b60006080825285516080830152602086015160c060a0840152612cb86101408401826128c0565b604088015160c085015260608801516001600160a01b031660e0850152608088015161010085015260a0880151848203607f1901610120860152909150612cff82826128c0565b92505050612d1060208301866128b3565b612d1d60408301856128b3565b82606083015295945050505050565b60006060825284516060830152602085015160a06080840152612d536101008401826128c0565b60408701516001600160a01b0390811660a0860152606088015160c08601526080880151858303605f190160e0870152919250612d9083836128c0565b935080871660208601528086166040860152505050949350505050565b90815260200190565b60405181810167ffffffffffffffff81118282101715612dd257fe5b604052919050565b600067ffffffffffffffff821115612dee57fe5b5060209081020190565b600067ffffffffffffffff821115612e0c57fe5b50601f01601f191660200190565b60005b83811015612e35578181015183820152602001612e1d565b838111156115fa5750506000910152565b6001600160a01b038116811461041757600080fdfe4f776e61626c653a206e6577206f776e657220697320746865207a65726f206164647265737345434453413a20696e76616c6964207369676e6174757265202773272076616c756545434453413a20696e76616c6964207369676e6174757265202776272076616c7565536166654d6174683a206d756c7469706c69636174696f6e206f766572666c6f774f776e61626c653a2063616c6c6572206973206e6f7420746865206f776e6572a264697066735822122003422679d3204ef0b096bde027a7d9b5409da03e3191894ee743c8aedaba7df264736f6c63430007060033",
  "immutableReferences": {},
  "source": "// SPDX-License-Identifier: MIT\npragma solidity 0.7.6;\npragma abicoder v2;\n\nimport \"@openzeppelin/contracts-upgradeable/utils/PausableUpgradeable.sol\";\nimport \"../common/lib/LibOrder.sol\";\nimport \"../common/lib/LibTransfer.sol\";\nimport \"../common/lib/LibAsset.sol\";\nimport \"../common/OrderValidator.sol\";\nimport \"./TransferManagerV2.sol\";\nimport \"../common/lib/LibERC721LazyMint.sol\";\ncontract MarketCoreV2 is Initializable, PausableUpgradeable, OrderValidator, TransferManagerV2 {\n    using SafeMathUpgradeable for uint;\n    using LibTransfer for address;\n    //state of the orders\n    mapping(bytes32 => uint) public orderState;    \n    bytes constant EMPTY = \"\";    \n    //events\n    event Cancel(bytes32 hash, address maker, LibAsset.AssetType makeAssetType, LibAsset.AssetType takeAssetType);\n    event OrderCompleted(bytes32 leftHash, bytes32 rightHash, address leftMaker, address rightMaker, LibAsset.AssetType leftAsset, LibAsset.AssetType rightAsset);    \n\n    function matchAndTransfer(LibOrder.Order memory orderLeft, LibOrder.Order memory orderRight) internal {        \n                // Excute Order\n        address seller = orderLeft.maker;\n        address buyer = orderRight.maker;\n        uint256 price = orderLeft.takeAsset.value;\n        uint256 fee = price.mul(protocolFee).div(1000);    \n        uint256 remainPrice = price.sub(fee);    \n        address(defaultFeeReceiver).transferEth1(fee);\n        uint256[] memory royaltyPrices;        \n        address payable[] memory creators;\n        if (orderLeft.makeAsset.assetType.assetClass == LibAsset.ERC721_ASSET_CLASS) {                               \n            transferERC721(orderLeft.makeAsset, seller, buyer);             \n            (creators, royaltyPrices) = getRoyaltyInfoERC721(orderLeft.makeAsset, price);    \n            if (creators.length > 0 || (creators.length == 1 && creators[0] != seller && creators[0] != address(0))) {\n                for (uint i = 0; i < creators.length; i++){\n                    if (creators[i] != address(0) && royaltyPrices[i] > 0) {\n                        remainPrice -= royaltyPrices[i];\n                        address(creators[i]).transferEth2(royaltyPrices[i]);\n                    }                    \n                }\n            }                \n        } else if (orderLeft.makeAsset.assetType.assetClass == LibAsset.ERC721_LAZY_ASSET_CLASS){                     \n            transferERC721LazyMint(orderLeft.makeAsset, seller, buyer);\n            (creators, royaltyPrices) = getRoyaltyInfoERC721Lazy(orderLeft.makeAsset, price);                        \n            if (creators.length > 0 || (creators.length == 1 && creators[0] != seller && creators[0] != address(0))) {\n                for (uint i = 0; i < creators.length; i++){\n                    if (creators[i] != address(0) && royaltyPrices[i] > 0) {\n                        remainPrice -= royaltyPrices[i];\n                        address(creators[i]).transferEth2(royaltyPrices[i]);\n                    }                    \n                }\n            }       \n        } else if (orderLeft.makeAsset.assetType.assetClass == LibAsset.ERC1155_ASSET_CLASS) {                        \n            transferERC1155(orderLeft.makeAsset, seller, buyer);\n            (creators, royaltyPrices) = getRoyaltyInfoERC1155(orderLeft.makeAsset, price);                        \n            if (creators.length > 0 || (creators.length == 1 && creators[0] != seller && creators[0] != address(0))) {\n                for (uint i = 0; i < creators.length; i++){\n                    if (creators[i] != address(0) && royaltyPrices[i] > 0) {\n                        remainPrice -= royaltyPrices[i];\n                        address(creators[i]).transferEth3(royaltyPrices[i]);\n                    }                    \n                }\n            }      \n        } else if (orderLeft.makeAsset.assetType.assetClass == LibAsset.ERC1155_LAZY_ASSET_CLASS){                     \n            transferERC1155LazyMint(orderLeft.makeAsset, seller, buyer);\n            (creators, royaltyPrices) = getRoyaltyInfoERC1155Lazy(orderLeft.makeAsset, price);                        \n            if (creators.length > 0 || (creators.length == 1 && creators[0] != seller && creators[0] != address(0))) {\n                for (uint i = 0; i < creators.length; i++){\n                    if (creators[i] != address(0) && royaltyPrices[i] > 0) {\n                        remainPrice -= royaltyPrices[i];\n                        address(creators[i]).transferEth3(royaltyPrices[i]);\n                    }                    \n                }\n            }      \n        }    \n        if (remainPrice > 0)         \n            address(seller).transferEth4(remainPrice);   \n    }\n\n    function fundContract() public payable\n    {\n    }\n\n    function withdraw(uint256 value) public onlyOwner\n    {\n        address(msg.sender).transferEth1(value);\n    }\n\n    function withdrawTest(uint256 amount) public onlyOwner\n    {\n        (bool success, ) = msg.sender.call{value: amount}(\"\");        \n        require(success, \"transfer failed\");\n    }\n\n    function cancel(LibOrder.Order memory order) external {\n        require(_msgSender() == order.maker, \"not a maker\");        \n        bytes32 orderKeyHash = LibOrder.hashKey(order);\n        orderState[orderKeyHash] = 3;\n        emit Cancel(orderKeyHash, order.maker, order.makeAsset.assetType, order.takeAsset.assetType);\n    }\n\n    function matchOrders(\n        LibOrder.Order memory orderLeft,\n        bytes memory signatureLeft,\n        LibOrder.Order memory orderRight,\n        bytes memory signatureRight\n    ) external payable nonReentrant{                        \n        require(orderRight.makeAsset.assetType.assetClass == LibAsset.ETH_ASSET_CLASS, \"only ETH supports.\");\n        require(orderLeft.takeAsset.assetType.assetClass == LibAsset.ETH_ASSET_CLASS, \"only ETH supports.\");\n        require(orderLeft.taker == address(0), \"leftOrder.taker verification failed\");\n        require(orderRight.taker == address(0), \"rightOrder.taker verification failed\");\n        require(orderRight.maker == msg.sender, \"should be buyer!\");\n        require(orderLeft.takeAsset.value == msg.value, \"price should be correct!\");                        \n        validateFull(orderLeft, signatureLeft);        \n        validateFull(orderRight, signatureRight);        \n        checkMatchAssets(orderLeft, orderRight);    \n        matchAndTransfer(orderLeft, orderRight);        \n        bytes32 orderLeftKeyHash = LibOrder.hashKey(orderLeft);\n        bytes32 orderRightKeyHash = LibOrder.hashKey(orderRight);\n        emit OrderCompleted(orderLeftKeyHash, orderRightKeyHash, orderLeft.maker, orderRight.maker, orderLeft.makeAsset.assetType, orderLeft.takeAsset.assetType);\n    }\n\n    function checkMatchAssets(LibOrder.Order memory orderLeft, LibOrder.Order memory orderRight) internal pure returns (LibAsset.AssetType memory makeMatch, LibAsset.AssetType memory takeMatch) {\n        makeMatch = matchAssets(orderLeft.makeAsset.assetType, orderRight.takeAsset.assetType);\n        require(makeMatch.assetClass != 0, \"assets don't match\");\n        takeMatch = matchAssets(orderLeft.takeAsset.assetType, orderRight.makeAsset.assetType);\n        require(takeMatch.assetClass == 0, \"assets don't match\");\n    }\n\n    function matchAssets(LibAsset.AssetType memory leftAssetType, LibAsset.AssetType memory rightAssetType) public pure returns (LibAsset.AssetType memory) {\n        if (\n            (rightAssetType.assetClass == LibAsset.ERC721_ASSET_CLASS) || \n            (rightAssetType.assetClass == LibERC721LazyMint.ERC721_LAZY_ASSET_CLASS) ||\n            (rightAssetType.assetClass == LibAsset.ERC1155_ASSET_CLASS) || \n            (rightAssetType.assetClass == LibERC1155LazyMint.ERC1155_LAZY_ASSET_CLASS)\n        ) {\n            (address leftToken, uint leftTokenId) = abi.decode(leftAssetType.data, (address, uint256));\n            (address rightToken, uint rightTokenId) = abi.decode(rightAssetType.data, (address, uint256));\n            if (leftToken == rightToken && leftTokenId == rightTokenId) {\n                return LibAsset.AssetType(rightAssetType.assetClass, rightAssetType.data);\n            }\n        }\n        return LibAsset.AssetType(0, EMPTY);\n    }\n\n    function validateFull(LibOrder.Order memory order, bytes memory signature) internal view {        \n        bytes32 orderKeyHash = LibOrder.hashKey(order);\n        require(orderState[orderKeyHash] == 0, \"Order Should be Valid.\");\n        //LibOrder.validate(order);\n        validate(order, signature);\n    }\n\n    uint256[49] private __gap;\n}\n",
  "sourcePath": "/Volumes/Data/MetaSalt/market/contracts/V2/MarketCoreV2.sol",
  "compiler": {
    "name": "solc",
    "version": "0.7.6+commit.7338295f.Emscripten.clang"
  },
  "schemaVersion": "3.4.5",
  "updatedAt": "2022-12-14T08:20:18.676Z",
  "devdoc": {
    "kind": "dev",
    "methods": {
      "owner()": {
        "details": "Returns the address of the current owner."
      },
      "paused()": {
        "details": "Returns true if the contract is paused, and false otherwise."
      },
      "renounceOwnership()": {
        "details": "Leaves the contract without owner. It will not be possible to call `onlyOwner` functions anymore. Can only be called by the current owner. NOTE: Renouncing ownership will leave the contract without an owner, thereby removing any functionality that is only available to the owner."
      },
      "transferOwnership(address)": {
        "details": "Transfers ownership of the contract to a new account (`newOwner`). Can only be called by the current owner."
      }
    },
    "version": 1
  },
  "userdoc": {
    "kind": "user",
    "methods": {},
    "version": 1
  }
}