{
  "contractName": "MetaSaltMarketV2",
  "abi": [
    {
      "anonymous": false,
      "inputs": [
        {
          "indexed": false,
          "internalType": "bytes32",
          "name": "hash",
          "type": "bytes32"
        },
        {
          "indexed": false,
          "internalType": "address",
          "name": "maker",
          "type": "address"
        },
        {
          "components": [
            {
              "internalType": "bytes4",
              "name": "assetClass",
              "type": "bytes4"
            },
            {
              "internalType": "bytes",
              "name": "data",
              "type": "bytes"
            }
          ],
          "indexed": false,
          "internalType": "struct LibAsset.AssetType",
          "name": "makeAssetType",
          "type": "tuple"
        },
        {
          "components": [
            {
              "internalType": "bytes4",
              "name": "assetClass",
              "type": "bytes4"
            },
            {
              "internalType": "bytes",
              "name": "data",
              "type": "bytes"
            }
          ],
          "indexed": false,
          "internalType": "struct LibAsset.AssetType",
          "name": "takeAssetType",
          "type": "tuple"
        }
      ],
      "name": "Cancel",
      "type": "event"
    },
    {
      "anonymous": false,
      "inputs": [
        {
          "indexed": false,
          "internalType": "bytes32",
          "name": "leftHash",
          "type": "bytes32"
        },
        {
          "indexed": false,
          "internalType": "bytes32",
          "name": "rightHash",
          "type": "bytes32"
        },
        {
          "indexed": false,
          "internalType": "address",
          "name": "leftMaker",
          "type": "address"
        },
        {
          "indexed": false,
          "internalType": "address",
          "name": "rightMaker",
          "type": "address"
        },
        {
          "components": [
            {
              "internalType": "bytes4",
              "name": "assetClass",
              "type": "bytes4"
            },
            {
              "internalType": "bytes",
              "name": "data",
              "type": "bytes"
            }
          ],
          "indexed": false,
          "internalType": "struct LibAsset.AssetType",
          "name": "leftAsset",
          "type": "tuple"
        },
        {
          "components": [
            {
              "internalType": "bytes4",
              "name": "assetClass",
              "type": "bytes4"
            },
            {
              "internalType": "bytes",
              "name": "data",
              "type": "bytes"
            }
          ],
          "indexed": false,
          "internalType": "struct LibAsset.AssetType",
          "name": "rightAsset",
          "type": "tuple"
        }
      ],
      "name": "OrderCompleted",
      "type": "event"
    },
    {
      "anonymous": false,
      "inputs": [
        {
          "indexed": true,
          "internalType": "address",
          "name": "previousOwner",
          "type": "address"
        },
        {
          "indexed": true,
          "internalType": "address",
          "name": "newOwner",
          "type": "address"
        }
      ],
      "name": "OwnershipTransferred",
      "type": "event"
    },
    {
      "anonymous": false,
      "inputs": [
        {
          "indexed": false,
          "internalType": "address",
          "name": "account",
          "type": "address"
        }
      ],
      "name": "Paused",
      "type": "event"
    },
    {
      "anonymous": false,
      "inputs": [
        {
          "indexed": false,
          "internalType": "address",
          "name": "account",
          "type": "address"
        }
      ],
      "name": "Unpaused",
      "type": "event"
    },
    {
      "inputs": [
        {
          "components": [
            {
              "internalType": "address",
              "name": "maker",
              "type": "address"
            },
            {
              "components": [
                {
                  "components": [
                    {
                      "internalType": "bytes4",
                      "name": "assetClass",
                      "type": "bytes4"
                    },
                    {
                      "internalType": "bytes",
                      "name": "data",
                      "type": "bytes"
                    }
                  ],
                  "internalType": "struct LibAsset.AssetType",
                  "name": "assetType",
                  "type": "tuple"
                },
                {
                  "internalType": "uint256",
                  "name": "value",
                  "type": "uint256"
                }
              ],
              "internalType": "struct LibAsset.Asset",
              "name": "makeAsset",
              "type": "tuple"
            },
            {
              "internalType": "address",
              "name": "taker",
              "type": "address"
            },
            {
              "components": [
                {
                  "components": [
                    {
                      "internalType": "bytes4",
                      "name": "assetClass",
                      "type": "bytes4"
                    },
                    {
                      "internalType": "bytes",
                      "name": "data",
                      "type": "bytes"
                    }
                  ],
                  "internalType": "struct LibAsset.AssetType",
                  "name": "assetType",
                  "type": "tuple"
                },
                {
                  "internalType": "uint256",
                  "name": "value",
                  "type": "uint256"
                }
              ],
              "internalType": "struct LibAsset.Asset",
              "name": "takeAsset",
              "type": "tuple"
            },
            {
              "internalType": "bytes",
              "name": "data",
              "type": "bytes"
            }
          ],
          "internalType": "struct LibOrder.Order",
          "name": "order",
          "type": "tuple"
        }
      ],
      "name": "cancel",
      "outputs": [],
      "stateMutability": "nonpayable",
      "type": "function"
    },
    {
      "inputs": [],
      "name": "defaultFeeReceiver",
      "outputs": [
        {
          "internalType": "address",
          "name": "",
          "type": "address"
        }
      ],
      "stateMutability": "view",
      "type": "function"
    },
    {
      "inputs": [],
      "name": "fundContract",
      "outputs": [],
      "stateMutability": "payable",
      "type": "function"
    },
    {
      "inputs": [
        {
          "components": [
            {
              "internalType": "bytes4",
              "name": "assetClass",
              "type": "bytes4"
            },
            {
              "internalType": "bytes",
              "name": "data",
              "type": "bytes"
            }
          ],
          "internalType": "struct LibAsset.AssetType",
          "name": "leftAssetType",
          "type": "tuple"
        },
        {
          "components": [
            {
              "internalType": "bytes4",
              "name": "assetClass",
              "type": "bytes4"
            },
            {
              "internalType": "bytes",
              "name": "data",
              "type": "bytes"
            }
          ],
          "internalType": "struct LibAsset.AssetType",
          "name": "rightAssetType",
          "type": "tuple"
        }
      ],
      "name": "matchAssets",
      "outputs": [
        {
          "components": [
            {
              "internalType": "bytes4",
              "name": "assetClass",
              "type": "bytes4"
            },
            {
              "internalType": "bytes",
              "name": "data",
              "type": "bytes"
            }
          ],
          "internalType": "struct LibAsset.AssetType",
          "name": "",
          "type": "tuple"
        }
      ],
      "stateMutability": "pure",
      "type": "function"
    },
    {
      "inputs": [
        {
          "components": [
            {
              "internalType": "address",
              "name": "maker",
              "type": "address"
            },
            {
              "components": [
                {
                  "components": [
                    {
                      "internalType": "bytes4",
                      "name": "assetClass",
                      "type": "bytes4"
                    },
                    {
                      "internalType": "bytes",
                      "name": "data",
                      "type": "bytes"
                    }
                  ],
                  "internalType": "struct LibAsset.AssetType",
                  "name": "assetType",
                  "type": "tuple"
                },
                {
                  "internalType": "uint256",
                  "name": "value",
                  "type": "uint256"
                }
              ],
              "internalType": "struct LibAsset.Asset",
              "name": "makeAsset",
              "type": "tuple"
            },
            {
              "internalType": "address",
              "name": "taker",
              "type": "address"
            },
            {
              "components": [
                {
                  "components": [
                    {
                      "internalType": "bytes4",
                      "name": "assetClass",
                      "type": "bytes4"
                    },
                    {
                      "internalType": "bytes",
                      "name": "data",
                      "type": "bytes"
                    }
                  ],
                  "internalType": "struct LibAsset.AssetType",
                  "name": "assetType",
                  "type": "tuple"
                },
                {
                  "internalType": "uint256",
                  "name": "value",
                  "type": "uint256"
                }
              ],
              "internalType": "struct LibAsset.Asset",
              "name": "takeAsset",
              "type": "tuple"
            },
            {
              "internalType": "bytes",
              "name": "data",
              "type": "bytes"
            }
          ],
          "internalType": "struct LibOrder.Order",
          "name": "orderLeft",
          "type": "tuple"
        },
        {
          "internalType": "bytes",
          "name": "signatureLeft",
          "type": "bytes"
        },
        {
          "components": [
            {
              "internalType": "address",
              "name": "maker",
              "type": "address"
            },
            {
              "components": [
                {
                  "components": [
                    {
                      "internalType": "bytes4",
                      "name": "assetClass",
                      "type": "bytes4"
                    },
                    {
                      "internalType": "bytes",
                      "name": "data",
                      "type": "bytes"
                    }
                  ],
                  "internalType": "struct LibAsset.AssetType",
                  "name": "assetType",
                  "type": "tuple"
                },
                {
                  "internalType": "uint256",
                  "name": "value",
                  "type": "uint256"
                }
              ],
              "internalType": "struct LibAsset.Asset",
              "name": "makeAsset",
              "type": "tuple"
            },
            {
              "internalType": "address",
              "name": "taker",
              "type": "address"
            },
            {
              "components": [
                {
                  "components": [
                    {
                      "internalType": "bytes4",
                      "name": "assetClass",
                      "type": "bytes4"
                    },
                    {
                      "internalType": "bytes",
                      "name": "data",
                      "type": "bytes"
                    }
                  ],
                  "internalType": "struct LibAsset.AssetType",
                  "name": "assetType",
                  "type": "tuple"
                },
                {
                  "internalType": "uint256",
                  "name": "value",
                  "type": "uint256"
                }
              ],
              "internalType": "struct LibAsset.Asset",
              "name": "takeAsset",
              "type": "tuple"
            },
            {
              "internalType": "bytes",
              "name": "data",
              "type": "bytes"
            }
          ],
          "internalType": "struct LibOrder.Order",
          "name": "orderRight",
          "type": "tuple"
        },
        {
          "internalType": "bytes",
          "name": "signatureRight",
          "type": "bytes"
        }
      ],
      "name": "matchOrders",
      "outputs": [],
      "stateMutability": "payable",
      "type": "function"
    },
    {
      "inputs": [
        {
          "internalType": "bytes32",
          "name": "",
          "type": "bytes32"
        }
      ],
      "name": "orderState",
      "outputs": [
        {
          "internalType": "uint256",
          "name": "",
          "type": "uint256"
        }
      ],
      "stateMutability": "view",
      "type": "function"
    },
    {
      "inputs": [],
      "name": "owner",
      "outputs": [
        {
          "internalType": "address",
          "name": "",
          "type": "address"
        }
      ],
      "stateMutability": "view",
      "type": "function"
    },
    {
      "inputs": [],
      "name": "paused",
      "outputs": [
        {
          "internalType": "bool",
          "name": "",
          "type": "bool"
        }
      ],
      "stateMutability": "view",
      "type": "function"
    },
    {
      "inputs": [],
      "name": "protocolFee",
      "outputs": [
        {
          "internalType": "uint256",
          "name": "",
          "type": "uint256"
        }
      ],
      "stateMutability": "view",
      "type": "function"
    },
    {
      "inputs": [],
      "name": "renounceOwnership",
      "outputs": [],
      "stateMutability": "nonpayable",
      "type": "function"
    },
    {
      "inputs": [],
      "name": "royaltyRegister",
      "outputs": [
        {
          "internalType": "address",
          "name": "",
          "type": "address"
        }
      ],
      "stateMutability": "view",
      "type": "function"
    },
    {
      "inputs": [
        {
          "internalType": "address payable",
          "name": "newDefaultFeeReceiver",
          "type": "address"
        }
      ],
      "name": "setDefaultFeeReceiver",
      "outputs": [],
      "stateMutability": "nonpayable",
      "type": "function"
    },
    {
      "inputs": [
        {
          "internalType": "uint256",
          "name": "newProtocolFee",
          "type": "uint256"
        }
      ],
      "name": "setProtocolFee",
      "outputs": [],
      "stateMutability": "nonpayable",
      "type": "function"
    },
    {
      "inputs": [
        {
          "internalType": "address",
          "name": "_newRoyaltyRegister",
          "type": "address"
        }
      ],
      "name": "setRoyaltyRegister",
      "outputs": [],
      "stateMutability": "nonpayable",
      "type": "function"
    },
    {
      "inputs": [
        {
          "internalType": "address",
          "name": "transferERC721Proxy",
          "type": "address"
        },
        {
          "internalType": "address",
          "name": "transferERC1155Proxy",
          "type": "address"
        }
      ],
      "name": "setTransferProxy",
      "outputs": [],
      "stateMutability": "nonpayable",
      "type": "function"
    },
    {
      "inputs": [
        {
          "internalType": "address",
          "name": "newOwner",
          "type": "address"
        }
      ],
      "name": "transferOwnership",
      "outputs": [],
      "stateMutability": "nonpayable",
      "type": "function"
    },
    {
      "inputs": [
        {
          "internalType": "uint256",
          "name": "value",
          "type": "uint256"
        }
      ],
      "name": "withdraw",
      "outputs": [],
      "stateMutability": "nonpayable",
      "type": "function"
    },
    {
      "inputs": [
        {
          "internalType": "uint256",
          "name": "amount",
          "type": "uint256"
        }
      ],
      "name": "withdrawTest",
      "outputs": [],
      "stateMutability": "nonpayable",
      "type": "function"
    },
    {
      "inputs": [
        {
          "internalType": "uint256",
          "name": "newProtocolFee",
          "type": "uint256"
        },
        {
          "internalType": "address",
          "name": "newDefaultFeeReceiver",
          "type": "address"
        },
        {
          "internalType": "address",
          "name": "transferERC721Proxy",
          "type": "address"
        },
        {
          "internalType": "address",
          "name": "transferERC1155Proxy",
          "type": "address"
        }
      ],
      "name": "__MetaSaltMarket_init",
      "outputs": [],
      "stateMutability": "nonpayable",
      "type": "function"
    }
  ],
  "bytecode": "0x608060405234801561001057600080fd5b50613530806100206000396000f3fe6080604052600436106101145760003560e01c80639f81cd13116100a0578063d56afca611610064578063d56afca6146102be578063eff55e72146102de578063f2fde38b146102fe578063f447638e1461031e578063fa43e5301461033e57610114565b80639f81cd131461023f578063aab14d0414610254578063b0e21e8a14610281578063b4a7819f14610296578063bd097e21146102b657610114565b80635c975abb116100e75780635c975abb146101a65780636d3f7cb0146101c8578063715018a6146101f5578063787dce3d1461020a5780638da5cb5b1461022a57610114565b80631cdfe3d8146101195780632e1a7d4d1461013b5780633abf6fd41461015b578063481fd50514610186575b600080fd5b34801561012557600080fd5b506101396101343660046129ef565b610351565b005b34801561014757600080fd5b50610139610156366004612cdd565b6103d6565b34801561016757600080fd5b50610170610445565b60405161017d9190612edd565b60405180910390f35b34801561019257600080fd5b506101396101a13660046129ef565b610455565b3480156101b257600080fd5b506101bb6104da565b60405161017d9190612f6e565b3480156101d457600080fd5b506101e86101e3366004612cf5565b6104e3565b60405161017d9190613244565b34801561020157600080fd5b50610139610618565b34801561021657600080fd5b50610139610225366004612cdd565b6106c4565b34801561023657600080fd5b5061017061072c565b34801561024b57600080fd5b5061017061073b565b34801561026057600080fd5b5061027461026f366004612cdd565b61074b565b60405161017d9190613373565b34801561028d57600080fd5b5061027461075e565b3480156102a257600080fd5b506101396102b1366004612cdd565b610765565b610139610850565b3480156102ca57600080fd5b506101396102d9366004612be2565b610852565b3480156102ea57600080fd5b506101396102f9366004612d4c565b610931565b34801561030a57600080fd5b506101396103193660046129ef565b6109d9565b34801561032a57600080fd5b50610139610339366004612e27565b610adc565b61013961034c366004612d7f565b610ba6565b610359610db5565b6001600160a01b031661036a61072c565b6001600160a01b0316146103b3576040805162461bcd60e51b815260206004820181905260248201526000805160206134db833981519152604482015290519081900360640190fd5b61013080546001600160a01b0319166001600160a01b0392909216919091179055565b6103de610db5565b6001600160a01b03166103ef61072c565b6001600160a01b031614610438576040805162461bcd60e51b815260206004820181905260248201526000805160206134db833981519152604482015290519081900360640190fd5b6104423382610db9565b50565b610130546001600160a01b031681565b61045d610db5565b6001600160a01b031661046e61072c565b6001600160a01b0316146104b7576040805162461bcd60e51b815260206004820181905260248201526000805160206134db833981519152604482015290519081900360640190fd5b61013280546001600160a01b0319166001600160a01b0392909216919091179055565b60335460ff1690565b6104eb612720565b81516001600160e01b0319166339d690a360e11b148061051c575081516001600160e01b03191663d8f960c160e01b145b80610538575081516001600160e01b03191663025ceed960e61b145b80610553575081516001600160e01b03191662737ea960e61b145b156105ee5760008084602001518060200190518101906105739190612bb5565b9150915060008085602001518060200190518101906105929190612bb5565b91509150816001600160a01b0316846001600160a01b03161480156105b657508083145b156105e95750506040805180820190915284516001600160e01b0319168152602080860151908201529250610612915050565b505050505b50604080518082018252600080825282516020818101909452908152918101919091525b92915050565b610620610db5565b6001600160a01b031661063161072c565b6001600160a01b03161461067a576040805162461bcd60e51b815260206004820181905260248201526000805160206134db833981519152604482015290519081900360640190fd5b60fd546040516000916001600160a01b0316907f8be0079c531659141344cd1fd0a4f28419497f9722a3daafe3b4186f6b6457e0908390a360fd80546001600160a01b0319169055565b6106cc610db5565b6001600160a01b03166106dd61072c565b6001600160a01b031614610726576040805162461bcd60e51b815260206004820181905260248201526000805160206134db833981519152604482015290519081900360640190fd5b61012f55565b60fd546001600160a01b031690565b610132546001600160a01b031681565b6101606020526000908152604090205481565b61012f5481565b61076d610db5565b6001600160a01b031661077e61072c565b6001600160a01b0316146107c7576040805162461bcd60e51b815260206004820181905260248201526000805160206134db833981519152604482015290519081900360640190fd5b6000336001600160a01b0316826040516107e090612eda565b60006040518083038185875af1925050503d806000811461081d576040519150601f19603f3d011682016040523d82523d6000602084013e610822565b606091505b505090508061084c5760405162461bcd60e51b8152600401610843906131b3565b60405180910390fd5b5050565b565b61085a610db5565b6001600160a01b031661086b61072c565b6001600160a01b0316146108b4576040805162461bcd60e51b815260206004820181905260248201526000805160206134db833981519152604482015290519081900360640190fd5b6101316020527ffd23a7b9b5314a90813df2b64e60502a6b31b56b5df0686ee0049c8f7717bf7980546001600160a01b039384166001600160a01b03199182161790915563025ceed960e61b6000527f63c5e593bf2ee54e7cba16647235067582c7e8fc237b6736e61c9d87d0578cf78054929093169116179055565b80516001600160a01b0316610944610db5565b6001600160a01b03161461096a5760405162461bcd60e51b81526004016108439061321f565b600061097582610e57565b60008181526101606020908152604091829020600390558451908501515160608601515192519394507fbbdc98cb2835f4f846e6a63700d0498b4674f0e8858fd50c6379314227afa04e936109cd9386939291612f79565b60405180910390a15050565b6109e1610db5565b6001600160a01b03166109f261072c565b6001600160a01b031614610a3b576040805162461bcd60e51b815260206004820181905260248201526000805160206134db833981519152604482015290519081900360640190fd5b6001600160a01b038116610a805760405162461bcd60e51b81526004018080602001828103825260268152602001806134226026913960400191505060405180910390fd5b60fd546040516001600160a01b038084169216907f8be0079c531659141344cd1fd0a4f28419497f9722a3daafe3b4186f6b6457e090600090a360fd80546001600160a01b0319166001600160a01b0392909216919091179055565b600054610100900460ff1680610af55750610af5610f2e565b80610b03575060005460ff16155b610b3e5760405162461bcd60e51b815260040180806020018281038252602e81526020018061346a602e913960400191505060405180910390fd5b600054610100900460ff16158015610b69576000805460ff1961ff0019909116610100171660011790555b610b71610f3f565b610b79610fe0565b610b816110d9565b610b8d858585856111af565b8015610b9f576000805461ff00191690555b5050505050565b60026099541415610bfe576040805162461bcd60e51b815260206004820152601f60248201527f5265656e7472616e637947756172643a207265656e7472616e742063616c6c00604482015290519081900360640190fd5b6002609955602082015151516001600160e01b0319166355575f5d60e11b14610c395760405162461bcd60e51b81526004016108439061304f565b606084015151516001600160e01b0319166355575f5d60e11b14610c6f5760405162461bcd60e51b81526004016108439061304f565b60408401516001600160a01b031615610c9a5760405162461bcd60e51b8152600401610843906131dc565b60408201516001600160a01b031615610cc55760405162461bcd60e51b8152600401610843906130a5565b81516001600160a01b03163314610cee5760405162461bcd60e51b81526004016108439061307b565b3484606001516020015114610d155760405162461bcd60e51b815260040161084390613018565b610d1f84846112e7565b610d2982826112e7565b610d33848361132c565b5050610d3f84836113c6565b6000610d4a85610e57565b90506000610d5784610e57565b8651855160208901515160608a0151516040519495507f7980e0a70d0b16f81972215bd88d02e4599de4af5a3c8220130b37909e4da6b794610da0948894889491939092612fc0565b60405180910390a15050600160995550505050565b3390565b6040516000906001600160a01b0384169083908381818185875af1925050503d8060008114610e04576040519150601f19603f3d011682016040523d82523d6000602084013e610e09565b606091505b5050905080610e52576040805162461bcd60e51b815260206004820152601060248201526f7472616e73666572206661696c65643160801b604482015290519081900360640190fd5b505050565b805160208201515160009190610e6c906119c2565b606084015151610e7b906119c2565b846080015160405160200180856001600160a01b0316815260200184815260200183815260200180602001828103825283818151815260200191508051906020019080838360005b83811015610edb578181015183820152602001610ec3565b50505050905090810190601f168015610f085780820380516001836020036101000a031916815260200191505b50955050505050506040516020818303038152906040528051906020012090505b919050565b6000610f3930611a2c565b15905090565b600054610100900460ff1680610f585750610f58610f2e565b80610f66575060005460ff16155b610fa15760405162461bcd60e51b815260040180806020018281038252602e81526020018061346a602e913960400191505060405180910390fd5b600054610100900460ff16158015610fcc576000805460ff1961ff0019909116610100171660011790555b8015610442576000805461ff001916905550565b600054610100900460ff1680610ff95750610ff9610f2e565b80611007575060005460ff16155b6110425760405162461bcd60e51b815260040180806020018281038252602e81526020018061346a602e913960400191505060405180910390fd5b600054610100900460ff1615801561106d576000805460ff1961ff0019909116610100171660011790555b6000611077610db5565b60fd80546001600160a01b0319166001600160a01b038316908117909155604051919250906000907f8be0079c531659141344cd1fd0a4f28419497f9722a3daafe3b4186f6b6457e0908290a3508015610442576000805461ff001916905550565b600054610100900460ff16806110f257506110f2610f2e565b80611100575060005460ff16155b61113b5760405162461bcd60e51b815260040180806020018281038252602e81526020018061346a602e913960400191505060405180910390fd5b600054610100900460ff16158015611166576000805460ff1961ff0019909116610100171660011790555b610fcc6040518060400160405280600e81526020016d13595d1854d85b1d13585c9ad95d60921b815250604051806040016040528060018152602001603160f81b815250611a32565b600054610100900460ff16806111c857506111c8610f2e565b806111d6575060005460ff16155b6112115760405162461bcd60e51b815260040180806020018281038252602e81526020018061346a602e913960400191505060405180910390fd5b600054610100900460ff1615801561123c576000805460ff1961ff0019909116610100171660011790555b6101316020527ffd23a7b9b5314a90813df2b64e60502a6b31b56b5df0686ee0049c8f7717bf7980546001600160a01b038086166001600160a01b03199283161790925563025ceed960e61b6000527f63c5e593bf2ee54e7cba16647235067582c7e8fc237b6736e61c9d87d0578cf7805485841690831617905561012f8790556101308054928716929091169190911790558015610b9f576000805461ff00191690555050505050565b60006112f283610e57565b60008181526101606020526040902054909150156113225760405162461bcd60e51b815260040161084390613157565b610e528383611af2565b611334612720565b61133c612720565b60208401515160608401515161135291906104e3565b80519092506001600160e01b03191661137d5760405162461bcd60e51b815260040161084390613187565b60608401515160208401515161139391906104e3565b80519091506001600160e01b031916156113bf5760405162461bcd60e51b815260040161084390613187565b9250929050565b8151815160608401516020015161012f546000906113f3906103e8906113ed908590611b74565b90611bd4565b905060006114018383611c3b565b6101305490915061141b906001600160a01b031683610db9565b6020870151515160609081906001600160e01b0319166339d690a360e11b141561159e5761144e89602001518888611c98565b61145c896020015186611d3d565b81519093509091501515806114d65750805160011480156114a35750866001600160a01b03168160008151811061148f57fe5b60200260200101516001600160a01b031614155b80156114d6575060006001600160a01b0316816000815181106114c257fe5b60200260200101516001600160a01b031614155b156115995760005b81518110156115975760006001600160a01b03168282815181106114fe57fe5b60200260200101516001600160a01b0316141580156115305750600083828151811061152657fe5b6020026020010151115b1561158f5782818151811061154157fe5b60200260200101518403935061158f83828151811061155c57fe5b602002602001015183838151811061157057fe5b60200260200101516001600160a01b0316611e1d90919063ffffffff16565b6001016114de565b505b61199e565b602089015151516001600160e01b03191663d8f960c160e01b14156116e2576115cc89602001518888611eb6565b6115da896020015186611f2e565b81519093509091501515806116545750805160011480156116215750866001600160a01b03168160008151811061160d57fe5b60200260200101516001600160a01b031614155b8015611654575060006001600160a01b03168160008151811061164057fe5b60200260200101516001600160a01b031614155b156115995760005b81518110156115975760006001600160a01b031682828151811061167c57fe5b60200260200101516001600160a01b0316141580156116ae575060008382815181106116a457fe5b6020026020010151115b156116da578281815181106116bf57fe5b6020026020010151840393506116da83828151811061155c57fe5b60010161165c565b602089015151516001600160e01b03191663025ceed960e61b14156118595761171089602001518888611fae565b61171e896020015186612007565b81519093509091501515806117985750805160011480156117655750866001600160a01b03168160008151811061175157fe5b60200260200101516001600160a01b031614155b8015611798575060006001600160a01b03168160008151811061178457fe5b60200260200101516001600160a01b031614155b156115995760005b81518110156115975760006001600160a01b03168282815181106117c057fe5b60200260200101516001600160a01b0316141580156117f2575060008382815181106117e857fe5b6020026020010151115b156118515782818151811061180357fe5b60200260200101518403935061185183828151811061181e57fe5b602002602001015183838151811061183257fe5b60200260200101516001600160a01b031661202990919063ffffffff16565b6001016117a0565b602089015151516001600160e01b03191662737ea960e61b141561199e57611886896020015188886120c2565b61189489602001518661211b565b815190935090915015158061190e5750805160011480156118db5750866001600160a01b0316816000815181106118c757fe5b60200260200101516001600160a01b031614155b801561190e575060006001600160a01b0316816000815181106118fa57fe5b60200260200101516001600160a01b031614155b1561199e5760005b815181101561199c5760006001600160a01b031682828151811061193657fe5b60200260200101516001600160a01b0316141580156119685750600083828151811061195e57fe5b6020026020010151115b156119945782818151811061197957fe5b60200260200101518403935061199483828151811061181e57fe5b600101611916565b505b82156119b7576119b76001600160a01b0388168461213d565b505050505050505050565b8051602091820151805190830120604080517f452a0dc408cb0d27ffc3b3caff933a5208040a53a9dbecd8d89cad2c0d40e00c818601526001600160e01b031990931683820152606080840192909252805180840390920182526080909201909152805191012090565b3b151590565b600054610100900460ff1680611a4b5750611a4b610f2e565b80611a59575060005460ff16155b611a945760405162461bcd60e51b815260040180806020018281038252602e81526020018061346a602e913960400191505060405180910390fd5b600054610100900460ff16158015611abf576000805460ff1961ff0019909116610100171660011790555b82516020808501919091208351918401919091206065919091556066558015610e52576000805461ff0019169055505050565b81516001600160a01b0316611b05610db5565b6001600160a01b03161461084c576000611b1e836121d6565b90506000825160411415611b4257611b3f83611b398461228b565b906122d7565b90505b83516001600160a01b03828116911614611b6e5760405162461bcd60e51b8152600401610843906130e9565b50505050565b600082611b8357506000610612565b82820282848281611b9057fe5b0414611bcd5760405162461bcd60e51b81526004018080602001828103825260218152602001806134ba6021913960400191505060405180910390fd5b9392505050565b6000808211611c2a576040805162461bcd60e51b815260206004820152601a60248201527f536166654d6174683a206469766973696f6e206279207a65726f000000000000604482015290519081900360640190fd5b818381611c3357fe5b049392505050565b600082821115611c92576040805162461bcd60e51b815260206004820152601e60248201527f536166654d6174683a207375627472616374696f6e206f766572666c6f770000604482015290519081900360640190fd5b50900390565b600080846000015160200151806020019051810190611cb79190612bb5565b915091508460200151600114611cdf5760405162461bcd60e51b81526004016108439061312b565b6040516323b872dd60e01b81526001600160a01b038316906323b872dd90611d0f90879087908690600401612ef1565b600060405180830381600087803b158015611d2957600080fd5b505af11580156119b7573d6000803e3d6000fd5b6060808360200151600114611d645760405162461bcd60e51b81526004016108439061312b565b600080856000015160200151806020019051810190611d839190612bb5565b61013254604051630f84100560e21b81529294509092506001600160a01b031690633e10401490611dbc90859085908a90600401612f4d565b60006040518083038186803b158015611dd457600080fd5b505afa158015611de8573d6000803e3d6000fd5b505050506040513d6000823e601f3d908101601f19168201604052611e109190810190612c1a565b9097909650945050505050565b6040516000906001600160a01b0384169083908381818185875af1925050503d8060008114611e68576040519150601f19603f3d011682016040523d82523d6000602084013e611e6d565b606091505b5050905080610e52576040805162461bcd60e51b815260206004820152601060248201526f3a3930b739b332b9103330b4b632b21960811b604482015290519081900360640190fd5b8260200151600114611eda5760405162461bcd60e51b81526004016108439061312b565b600080846000015160200151806020019051810190611ef99190612ade565b6040516383adacb560e01b815291935091506001600160a01b038316906383adacb590611d0f908490889088906004016132f2565b6060808360200151600114611f555760405162461bcd60e51b81526004016108439061312b565b600080856000015160200151806020019051810190611f749190612ade565b610132548151604051630f84100560e21b81529395509193506001600160a01b031691633e10401491611dbc918691908a90600401612f4d565b600080846000015160200151806020019051810190611fcd9190612bb5565b91509150816001600160a01b031663f242432a85858489602001516040518563ffffffff1660e01b8152600401611d0f9493929190612f15565b606080600080856000015160200151806020019051810190611d839190612bb5565b6040516000906001600160a01b0384169083908381818185875af1925050503d8060008114612074576040519150601f19603f3d011682016040523d82523d6000602084013e612079565b606091505b5050905080610e52576040805162461bcd60e51b815260206004820152601060248201526f7472616e73666572206661696c65643360801b604482015290519081900360640190fd5b6000808460000151602001518060200190518101906120e19190612a0b565b91509150816001600160a01b031663f8786f0f82868689602001516040518563ffffffff1660e01b8152600401611d0f9493929190613257565b606080600080856000015160200151806020019051810190611f749190612a0b565b6040516000906001600160a01b0384169083908381818185875af1925050503d8060008114612188576040519150601f19603f3d011682016040523d82523d6000602084013e61218d565b606091505b5050905080610e52576040805162461bcd60e51b815260206004820152601060248201526f1d1c985b9cd9995c8819985a5b19590d60821b604482015290519081900360640190fd5b60007f74841602ef8bc0259a135b606bb44132c0ebfdc1466501e566cd8098c5490c2c826000015161220b8460200151612357565b846040015161221d8660600151612357565b86608001518051906020012060405160200180878152602001866001600160a01b03168152602001858152602001846001600160a01b031681526020018381526020018281526020019650505050505050604051602081830303815290604052805190602001209050919050565b60006122956123c7565b82604051602001808061190160f01b81525060020183815260200182815260200192505050604051602081830303815290604052805190602001209050919050565b6000815160411461232f576040805162461bcd60e51b815260206004820152601f60248201527f45434453413a20696e76616c6964207369676e6174757265206c656e67746800604482015290519081900360640190fd5b60208201516040830151606084015160001a61234d86828585612407565b9695505050505050565b60007fdb6f72e915676cfc289da13bc4ece054fd17b1df6d77ffc4a60510718c236b0861238783600001516119c2565b8360200151604051602001808481526020018381526020018281526020019350505050604051602081830303815290604052805190602001209050919050565b60006124027f8b73c3c69bb8fe3d512ecc4cf759cc79239f7b179b0ffacaa9a75d522b39400f6123f561265d565b6123fd612663565b612669565b905090565b60007f7fffffffffffffffffffffffffffffff5d576e7357a4501ddfe92f46681b20a08211156124685760405162461bcd60e51b81526004018080602001828103825260228152602001806134486022913960400191505060405180910390fd5b6000601e8560ff161115612542576004850360ff16601b148061249157506004850360ff16601c145b6124cc5760405162461bcd60e51b81526004018080602001828103825260228152602001806134986022913960400191505060405180910390fd5b60016124d7876126cb565b60048703868660405160008152602001604052604051808581526020018460ff1681526020018381526020018281526020019450505050506020604051602081039080840390855afa158015612531573d6000803e3d6000fd5b5050506020604051035190506125f9565b8460ff16601b148061255757508460ff16601c145b6125925760405162461bcd60e51b81526004018080602001828103825260228152602001806134986022913960400191505060405180910390fd5b60018686868660405160008152602001604052604051808581526020018460ff1681526020018381526020018281526020019450505050506020604051602081039080840390855afa1580156125ec573d6000803e3d6000fd5b5050506020604051035190505b6001600160a01b038116612654576040805162461bcd60e51b815260206004820152601860248201527f45434453413a20696e76616c6964207369676e61747572650000000000000000604482015290519081900360640190fd5b95945050505050565b60655490565b60665490565b600083838361267661271c565b3060405160200180868152602001858152602001848152602001838152602001826001600160a01b03168152602001955050505050506040516020818303038152906040528051906020012090509392505050565b604080517f19457468657265756d205369676e6564204d6573736167653a0a333200000000602080830191909152603c8083019490945282518083039094018452605c909101909152815191012090565b4690565b60408051808201909152600081526060602082015290565b8035610f298161340c565b8051610f298161340c565b600082601f83011261275e578081fd5b8151602061277361276e836133a0565b61337c565b828152818101908583018385028701840188101561278f578586fd5b855b858110156127ad57815184529284019290840190600101612791565b5090979650505050505050565b600082601f8301126127ca578081fd5b81356127d861276e826133be565b8181528460208386010111156127ec578283fd5b816020850160208301379081016020019190915292915050565b600082601f830112612816578081fd5b815161282461276e826133be565b818152846020838601011115612838578283fd5b6128498260208301602087016133e0565b949350505050565b600060408284031215612862578081fd5b6040516040810167ffffffffffffffff828210818311171561288057fe5b816040528293508435915063ffffffff60e01b821682146128a057600080fd5b908252602084013590808211156128b657600080fd5b506128c3858286016127ba565b6020830152505092915050565b6000604082840312156128e1578081fd5b6040516040810167ffffffffffffffff82821081831117156128ff57fe5b81604052829350843591508082111561291757600080fd5b5061292485828601612851565b825250602083013560208201525092915050565b600060a08284031215612949578081fd5b61295360a061337c565b905061295e82612738565b8152602082013567ffffffffffffffff8082111561297b57600080fd5b612987858386016128d0565b602084015261299860408501612738565b604084015260608401359150808211156129b157600080fd5b6129bd858386016128d0565b606084015260808401359150808211156129d657600080fd5b506129e3848285016127ba565b60808301525092915050565b600060208284031215612a00578081fd5b8135611bcd8161340c565b60008060408385031215612a1d578081fd5b8251612a288161340c565b602084015190925067ffffffffffffffff80821115612a45578283fd5b9084019060c08287031215612a58578283fd5b612a6260c061337c565b82518152602083015182811115612a77578485fd5b612a8388828601612806565b60208301525060408301516040820152612a9f60608401612743565b60608201526080830151608082015260a083015182811115612abf578485fd5b612acb88828601612806565b60a0830152508093505050509250929050565b60008060408385031215612af0578182fd5b8251612afb8161340c565b602084015190925067ffffffffffffffff80821115612b18578283fd5b9084019060a08287031215612b2b578283fd5b60405160a081018181108382111715612b4057fe5b60405282518152602083015182811115612b58578485fd5b612b6488828601612806565b602083015250612b7660408401612743565b604082015260608301516060820152608083015182811115612b96578485fd5b612ba288828601612806565b6080830152508093505050509250929050565b60008060408385031215612bc7578182fd5b8251612bd28161340c565b6020939093015192949293505050565b60008060408385031215612bf4578182fd5b8235612bff8161340c565b91506020830135612c0f8161340c565b809150509250929050565b60008060408385031215612c2c578182fd5b825167ffffffffffffffff80821115612c43578384fd5b818501915085601f830112612c56578384fd5b81516020612c6661276e836133a0565b82815281810190858301838502870184018b1015612c82578889fd5b8896505b84871015612cad578051612c998161340c565b835260019690960195918301918301612c86565b5091880151919650909350505080821115612cc6578283fd5b50612cd38582860161274e565b9150509250929050565b600060208284031215612cee578081fd5b5035919050565b60008060408385031215612d07578182fd5b823567ffffffffffffffff80821115612d1e578384fd5b612d2a86838701612851565b93506020850135915080821115612d3f578283fd5b50612cd385828601612851565b600060208284031215612d5d578081fd5b813567ffffffffffffffff811115612d73578182fd5b61284984828501612938565b60008060008060808587031215612d94578182fd5b843567ffffffffffffffff80821115612dab578384fd5b612db788838901612938565b95506020870135915080821115612dcc578384fd5b612dd8888389016127ba565b94506040870135915080821115612ded578384fd5b612df988838901612938565b93506060870135915080821115612e0e578283fd5b50612e1b878288016127ba565b91505092959194509250565b60008060008060808587031215612e3c578182fd5b843593506020850135612e4e8161340c565b92506040850135612e5e8161340c565b91506060850135612e6e8161340c565b939692955090935050565b6001600160a01b03169052565b60008151808452612e9e8160208601602086016133e0565b601f01601f19169290920160200192915050565b600063ffffffff60e01b82511683526020820151604060208501526128496040850182612e86565b90565b6001600160a01b0391909116815260200190565b6001600160a01b039384168152919092166020820152604081019190915260600190565b6001600160a01b0394851681529290931660208301526040820152606081019190915260a06080820181905260009082015260c00190565b6001600160a01b039390931683526020830191909152604082015260600190565b901515815260200190565b8481526001600160a01b0384166020820152608060408201819052600090612fa390830185612eb2565b8281036060840152612fb58185612eb2565b979650505050505050565b868152602081018690526001600160a01b0385811660408301528416606082015260c060808201819052600090612ff990830185612eb2565b82810360a084015261300b8185612eb2565b9998505050505050505050565b60208082526018908201527f70726963652073686f756c6420626520636f7272656374210000000000000000604082015260600190565b60208082526012908201527137b7363c9022aa241039bab83837b93a399760711b604082015260600190565b60208082526010908201526f73686f756c642062652062757965722160801b604082015260600190565b60208082526024908201527f72696768744f726465722e74616b657220766572696669636174696f6e2066616040820152631a5b195960e21b606082015260800190565b60208082526022908201527f6f72646572207369676e617475726520766572696669636174696f6e2065727260408201526137b960f11b606082015260800190565b60208082526012908201527132b9319b9918903b30b63ab29032b93937b960711b604082015260600190565b60208082526016908201527527b93232b91029b437bab632103132902b30b634b21760511b604082015260600190565b6020808252601290820152710c2e6e6cae8e640c8dedc4ee840dac2e8c6d60731b604082015260600190565b6020808252600f908201526e1d1c985b9cd9995c8819985a5b1959608a1b604082015260600190565b60208082526023908201527f6c6566744f726465722e74616b657220766572696669636174696f6e206661696040820152621b195960ea1b606082015260800190565b6020808252600b908201526a3737ba10309036b0b5b2b960a91b604082015260600190565b600060208252611bcd6020830184612eb2565b60006080825285516080830152602086015160c060a084015261327e610140840182612e86565b604088015160c085015260608801516001600160a01b031660e0850152608088015161010085015260a0880151848203607f19016101208601529091506132c58282612e86565b925050506132d66020830186612e79565b6132e36040830185612e79565b82606083015295945050505050565b60006060825284516060830152602085015160a06080840152613319610100840182612e86565b60408701516001600160a01b0390811660a0860152606088015160c08601526080880151858303605f190160e08701529192506133568383612e86565b935080871660208601528086166040860152505050949350505050565b90815260200190565b60405181810167ffffffffffffffff8111828210171561339857fe5b604052919050565b600067ffffffffffffffff8211156133b457fe5b5060209081020190565b600067ffffffffffffffff8211156133d257fe5b50601f01601f191660200190565b60005b838110156133fb5781810151838201526020016133e3565b83811115611b6e5750506000910152565b6001600160a01b038116811461044257600080fdfe4f776e61626c653a206e6577206f776e657220697320746865207a65726f206164647265737345434453413a20696e76616c6964207369676e6174757265202773272076616c7565496e697469616c697a61626c653a20636f6e747261637420697320616c726561647920696e697469616c697a656445434453413a20696e76616c6964207369676e6174757265202776272076616c7565536166654d6174683a206d756c7469706c69636174696f6e206f766572666c6f774f776e61626c653a2063616c6c6572206973206e6f7420746865206f776e6572a2646970667358221220fea247cc1241f965fb8a8ce798be25e7f3d56ea27392b1145137d93d09a2f0ee64736f6c63430007060033",
  "immutableReferences": {},
  "source": "// SPDX-License-Identifier: MIT\n\npragma solidity 0.7.6;\npragma abicoder v2;\nimport \"./MarketCoreV2.sol\";\nimport \"./TransferManagerV2.sol\";\n\ncontract MetaSaltMarketV2 is MarketCoreV2 {\n    function __MetaSaltMarket_init(\n        uint newProtocolFee,\n        address newDefaultFeeReceiver,\n        address transferERC721Proxy,\n        address transferERC1155Proxy\n    ) external initializer {\n        __Context_init_unchained();\n        __Ownable_init_unchained();                \n        __OrderValidator_init_unchained();\n        __TransferManager_init_unchained(newProtocolFee, newDefaultFeeReceiver, transferERC721Proxy, transferERC1155Proxy);\n    }\n}",
  "sourcePath": "/Volumes/Data/MetaSalt/market/contracts/V2/MetaSaltMarketV2.sol",
  "compiler": {
    "name": "solc",
    "version": "0.7.6+commit.7338295f.Emscripten.clang"
  },
  "schemaVersion": "3.4.5",
  "updatedAt": "2022-12-14T08:20:18.695Z",
  "devdoc": {
    "kind": "dev",
    "methods": {
      "owner()": {
        "details": "Returns the address of the current owner."
      },
      "paused()": {
        "details": "Returns true if the contract is paused, and false otherwise."
      },
      "renounceOwnership()": {
        "details": "Leaves the contract without owner. It will not be possible to call `onlyOwner` functions anymore. Can only be called by the current owner. NOTE: Renouncing ownership will leave the contract without an owner, thereby removing any functionality that is only available to the owner."
      },
      "transferOwnership(address)": {
        "details": "Transfers ownership of the contract to a new account (`newOwner`). Can only be called by the current owner."
      }
    },
    "version": 1
  },
  "userdoc": {
    "kind": "user",
    "methods": {},
    "version": 1
  }
}