{
  "contractName": "MetaSaltMarket",
  "abi": [
    {
      "anonymous": false,
      "inputs": [
        {
          "indexed": false,
          "internalType": "bytes32",
          "name": "hash",
          "type": "bytes32"
        },
        {
          "indexed": false,
          "internalType": "address",
          "name": "maker",
          "type": "address"
        },
        {
          "components": [
            {
              "internalType": "bytes4",
              "name": "assetClass",
              "type": "bytes4"
            },
            {
              "internalType": "bytes",
              "name": "data",
              "type": "bytes"
            }
          ],
          "indexed": false,
          "internalType": "struct LibAsset.AssetType",
          "name": "makeAssetType",
          "type": "tuple"
        },
        {
          "components": [
            {
              "internalType": "bytes4",
              "name": "assetClass",
              "type": "bytes4"
            },
            {
              "internalType": "bytes",
              "name": "data",
              "type": "bytes"
            }
          ],
          "indexed": false,
          "internalType": "struct LibAsset.AssetType",
          "name": "takeAssetType",
          "type": "tuple"
        }
      ],
      "name": "Cancel",
      "type": "event"
    },
    {
      "anonymous": false,
      "inputs": [
        {
          "indexed": false,
          "internalType": "bytes32",
          "name": "leftHash",
          "type": "bytes32"
        },
        {
          "indexed": false,
          "internalType": "bytes32",
          "name": "rightHash",
          "type": "bytes32"
        },
        {
          "indexed": false,
          "internalType": "address",
          "name": "leftMaker",
          "type": "address"
        },
        {
          "indexed": false,
          "internalType": "address",
          "name": "rightMaker",
          "type": "address"
        },
        {
          "components": [
            {
              "internalType": "bytes4",
              "name": "assetClass",
              "type": "bytes4"
            },
            {
              "internalType": "bytes",
              "name": "data",
              "type": "bytes"
            }
          ],
          "indexed": false,
          "internalType": "struct LibAsset.AssetType",
          "name": "leftAsset",
          "type": "tuple"
        },
        {
          "components": [
            {
              "internalType": "bytes4",
              "name": "assetClass",
              "type": "bytes4"
            },
            {
              "internalType": "bytes",
              "name": "data",
              "type": "bytes"
            }
          ],
          "indexed": false,
          "internalType": "struct LibAsset.AssetType",
          "name": "rightAsset",
          "type": "tuple"
        }
      ],
      "name": "OrderCompleted",
      "type": "event"
    },
    {
      "anonymous": false,
      "inputs": [
        {
          "indexed": true,
          "internalType": "address",
          "name": "previousOwner",
          "type": "address"
        },
        {
          "indexed": true,
          "internalType": "address",
          "name": "newOwner",
          "type": "address"
        }
      ],
      "name": "OwnershipTransferred",
      "type": "event"
    },
    {
      "anonymous": false,
      "inputs": [
        {
          "indexed": false,
          "internalType": "address",
          "name": "account",
          "type": "address"
        }
      ],
      "name": "Paused",
      "type": "event"
    },
    {
      "anonymous": false,
      "inputs": [
        {
          "indexed": false,
          "internalType": "address",
          "name": "account",
          "type": "address"
        }
      ],
      "name": "Unpaused",
      "type": "event"
    },
    {
      "inputs": [
        {
          "components": [
            {
              "internalType": "address",
              "name": "maker",
              "type": "address"
            },
            {
              "components": [
                {
                  "components": [
                    {
                      "internalType": "bytes4",
                      "name": "assetClass",
                      "type": "bytes4"
                    },
                    {
                      "internalType": "bytes",
                      "name": "data",
                      "type": "bytes"
                    }
                  ],
                  "internalType": "struct LibAsset.AssetType",
                  "name": "assetType",
                  "type": "tuple"
                },
                {
                  "internalType": "uint256",
                  "name": "value",
                  "type": "uint256"
                }
              ],
              "internalType": "struct LibAsset.Asset",
              "name": "makeAsset",
              "type": "tuple"
            },
            {
              "internalType": "address",
              "name": "taker",
              "type": "address"
            },
            {
              "components": [
                {
                  "components": [
                    {
                      "internalType": "bytes4",
                      "name": "assetClass",
                      "type": "bytes4"
                    },
                    {
                      "internalType": "bytes",
                      "name": "data",
                      "type": "bytes"
                    }
                  ],
                  "internalType": "struct LibAsset.AssetType",
                  "name": "assetType",
                  "type": "tuple"
                },
                {
                  "internalType": "uint256",
                  "name": "value",
                  "type": "uint256"
                }
              ],
              "internalType": "struct LibAsset.Asset",
              "name": "takeAsset",
              "type": "tuple"
            },
            {
              "internalType": "bytes",
              "name": "data",
              "type": "bytes"
            }
          ],
          "internalType": "struct LibOrder.Order",
          "name": "order",
          "type": "tuple"
        }
      ],
      "name": "cancel",
      "outputs": [],
      "stateMutability": "nonpayable",
      "type": "function"
    },
    {
      "inputs": [],
      "name": "defaultFeeReceiver",
      "outputs": [
        {
          "internalType": "address",
          "name": "",
          "type": "address"
        }
      ],
      "stateMutability": "view",
      "type": "function"
    },
    {
      "inputs": [],
      "name": "fundContract",
      "outputs": [],
      "stateMutability": "payable",
      "type": "function"
    },
    {
      "inputs": [
        {
          "components": [
            {
              "internalType": "bytes4",
              "name": "assetClass",
              "type": "bytes4"
            },
            {
              "internalType": "bytes",
              "name": "data",
              "type": "bytes"
            }
          ],
          "internalType": "struct LibAsset.AssetType",
          "name": "leftAssetType",
          "type": "tuple"
        },
        {
          "components": [
            {
              "internalType": "bytes4",
              "name": "assetClass",
              "type": "bytes4"
            },
            {
              "internalType": "bytes",
              "name": "data",
              "type": "bytes"
            }
          ],
          "internalType": "struct LibAsset.AssetType",
          "name": "rightAssetType",
          "type": "tuple"
        }
      ],
      "name": "matchAssets",
      "outputs": [
        {
          "components": [
            {
              "internalType": "bytes4",
              "name": "assetClass",
              "type": "bytes4"
            },
            {
              "internalType": "bytes",
              "name": "data",
              "type": "bytes"
            }
          ],
          "internalType": "struct LibAsset.AssetType",
          "name": "",
          "type": "tuple"
        }
      ],
      "stateMutability": "pure",
      "type": "function"
    },
    {
      "inputs": [
        {
          "components": [
            {
              "internalType": "address",
              "name": "maker",
              "type": "address"
            },
            {
              "components": [
                {
                  "components": [
                    {
                      "internalType": "bytes4",
                      "name": "assetClass",
                      "type": "bytes4"
                    },
                    {
                      "internalType": "bytes",
                      "name": "data",
                      "type": "bytes"
                    }
                  ],
                  "internalType": "struct LibAsset.AssetType",
                  "name": "assetType",
                  "type": "tuple"
                },
                {
                  "internalType": "uint256",
                  "name": "value",
                  "type": "uint256"
                }
              ],
              "internalType": "struct LibAsset.Asset",
              "name": "makeAsset",
              "type": "tuple"
            },
            {
              "internalType": "address",
              "name": "taker",
              "type": "address"
            },
            {
              "components": [
                {
                  "components": [
                    {
                      "internalType": "bytes4",
                      "name": "assetClass",
                      "type": "bytes4"
                    },
                    {
                      "internalType": "bytes",
                      "name": "data",
                      "type": "bytes"
                    }
                  ],
                  "internalType": "struct LibAsset.AssetType",
                  "name": "assetType",
                  "type": "tuple"
                },
                {
                  "internalType": "uint256",
                  "name": "value",
                  "type": "uint256"
                }
              ],
              "internalType": "struct LibAsset.Asset",
              "name": "takeAsset",
              "type": "tuple"
            },
            {
              "internalType": "bytes",
              "name": "data",
              "type": "bytes"
            }
          ],
          "internalType": "struct LibOrder.Order",
          "name": "orderLeft",
          "type": "tuple"
        },
        {
          "internalType": "bytes",
          "name": "signatureLeft",
          "type": "bytes"
        },
        {
          "components": [
            {
              "internalType": "address",
              "name": "maker",
              "type": "address"
            },
            {
              "components": [
                {
                  "components": [
                    {
                      "internalType": "bytes4",
                      "name": "assetClass",
                      "type": "bytes4"
                    },
                    {
                      "internalType": "bytes",
                      "name": "data",
                      "type": "bytes"
                    }
                  ],
                  "internalType": "struct LibAsset.AssetType",
                  "name": "assetType",
                  "type": "tuple"
                },
                {
                  "internalType": "uint256",
                  "name": "value",
                  "type": "uint256"
                }
              ],
              "internalType": "struct LibAsset.Asset",
              "name": "makeAsset",
              "type": "tuple"
            },
            {
              "internalType": "address",
              "name": "taker",
              "type": "address"
            },
            {
              "components": [
                {
                  "components": [
                    {
                      "internalType": "bytes4",
                      "name": "assetClass",
                      "type": "bytes4"
                    },
                    {
                      "internalType": "bytes",
                      "name": "data",
                      "type": "bytes"
                    }
                  ],
                  "internalType": "struct LibAsset.AssetType",
                  "name": "assetType",
                  "type": "tuple"
                },
                {
                  "internalType": "uint256",
                  "name": "value",
                  "type": "uint256"
                }
              ],
              "internalType": "struct LibAsset.Asset",
              "name": "takeAsset",
              "type": "tuple"
            },
            {
              "internalType": "bytes",
              "name": "data",
              "type": "bytes"
            }
          ],
          "internalType": "struct LibOrder.Order",
          "name": "orderRight",
          "type": "tuple"
        },
        {
          "internalType": "bytes",
          "name": "signatureRight",
          "type": "bytes"
        }
      ],
      "name": "matchOrders",
      "outputs": [],
      "stateMutability": "payable",
      "type": "function"
    },
    {
      "inputs": [
        {
          "internalType": "bytes32",
          "name": "",
          "type": "bytes32"
        }
      ],
      "name": "orderState",
      "outputs": [
        {
          "internalType": "uint256",
          "name": "",
          "type": "uint256"
        }
      ],
      "stateMutability": "view",
      "type": "function"
    },
    {
      "inputs": [],
      "name": "owner",
      "outputs": [
        {
          "internalType": "address",
          "name": "",
          "type": "address"
        }
      ],
      "stateMutability": "view",
      "type": "function"
    },
    {
      "inputs": [],
      "name": "paused",
      "outputs": [
        {
          "internalType": "bool",
          "name": "",
          "type": "bool"
        }
      ],
      "stateMutability": "view",
      "type": "function"
    },
    {
      "inputs": [],
      "name": "protocolFee",
      "outputs": [
        {
          "internalType": "uint256",
          "name": "",
          "type": "uint256"
        }
      ],
      "stateMutability": "view",
      "type": "function"
    },
    {
      "inputs": [],
      "name": "renounceOwnership",
      "outputs": [],
      "stateMutability": "nonpayable",
      "type": "function"
    },
    {
      "inputs": [
        {
          "internalType": "address payable",
          "name": "newDefaultFeeReceiver",
          "type": "address"
        }
      ],
      "name": "setDefaultFeeReceiver",
      "outputs": [],
      "stateMutability": "nonpayable",
      "type": "function"
    },
    {
      "inputs": [
        {
          "internalType": "uint256",
          "name": "newProtocolFee",
          "type": "uint256"
        }
      ],
      "name": "setProtocolFee",
      "outputs": [],
      "stateMutability": "nonpayable",
      "type": "function"
    },
    {
      "inputs": [
        {
          "internalType": "address",
          "name": "transferERC721Proxy",
          "type": "address"
        },
        {
          "internalType": "address",
          "name": "transferERC1155Proxy",
          "type": "address"
        }
      ],
      "name": "setTransferProxy",
      "outputs": [],
      "stateMutability": "nonpayable",
      "type": "function"
    },
    {
      "inputs": [
        {
          "internalType": "address",
          "name": "newOwner",
          "type": "address"
        }
      ],
      "name": "transferOwnership",
      "outputs": [],
      "stateMutability": "nonpayable",
      "type": "function"
    },
    {
      "inputs": [
        {
          "internalType": "uint256",
          "name": "value",
          "type": "uint256"
        }
      ],
      "name": "withdraw",
      "outputs": [],
      "stateMutability": "nonpayable",
      "type": "function"
    },
    {
      "inputs": [
        {
          "internalType": "uint256",
          "name": "amount",
          "type": "uint256"
        }
      ],
      "name": "withdrawTest",
      "outputs": [],
      "stateMutability": "nonpayable",
      "type": "function"
    },
    {
      "inputs": [
        {
          "internalType": "uint256",
          "name": "newProtocolFee",
          "type": "uint256"
        },
        {
          "internalType": "address",
          "name": "newDefaultFeeReceiver",
          "type": "address"
        },
        {
          "internalType": "address",
          "name": "transferERC721Proxy",
          "type": "address"
        },
        {
          "internalType": "address",
          "name": "transferERC1155Proxy",
          "type": "address"
        }
      ],
      "name": "__MetaSaltMarket_init",
      "outputs": [],
      "stateMutability": "nonpayable",
      "type": "function"
    }
  ],
  "bytecode": "0x608060405234801561001057600080fd5b50612fa2806100206000396000f3fe6080604052600436106100fe5760003560e01c8063aab14d0411610095578063d56afca611610064578063d56afca614610273578063eff55e7214610293578063f2fde38b146102b3578063f447638e146102d3578063fa43e530146102f3576100fe565b8063aab14d0414610209578063b0e21e8a14610236578063b4a7819f1461024b578063bd097e211461026b576100fe565b80636d3f7cb0116100d15780636d3f7cb014610192578063715018a6146101bf578063787dce3d146101d45780638da5cb5b146101f4576100fe565b80631cdfe3d8146101035780632e1a7d4d146101255780633abf6fd4146101455780635c975abb14610170575b600080fd5b34801561010f57600080fd5b5061012361011e366004612516565b610306565b005b34801561013157600080fd5b50610123610140366004612761565b61038b565b34801561015157600080fd5b5061015a6103fa565b604051610167919061296b565b60405180910390f35b34801561017c57600080fd5b5061018561040a565b60405161016791906129db565b34801561019e57600080fd5b506101b26101ad366004612779565b610413565b6040516101679190612cc6565b3480156101cb57600080fd5b50610123610548565b3480156101e057600080fd5b506101236101ef366004612761565b6105f4565b34801561020057600080fd5b5061015a61065c565b34801561021557600080fd5b50610229610224366004612761565b61066b565b6040516101679190612df5565b34801561024257600080fd5b5061022961067e565b34801561025757600080fd5b50610123610266366004612761565b610685565b610123610770565b34801561027f57600080fd5b5061012361028e366004612709565b610772565b34801561029f57600080fd5b506101236102ae3660046127da565b610851565b3480156102bf57600080fd5b506101236102ce366004612516565b6108f9565b3480156102df57600080fd5b506101236102ee3660046128b5565b6109fc565b61012361030136600461280d565b610ac6565b61030e610cd5565b6001600160a01b031661031f61065c565b6001600160a01b031614610368576040805162461bcd60e51b81526020600482018190526024820152600080516020612f4d833981519152604482015290519081900360640190fd5b61013080546001600160a01b0319166001600160a01b0392909216919091179055565b610393610cd5565b6001600160a01b03166103a461065c565b6001600160a01b0316146103ed576040805162461bcd60e51b81526020600482018190526024820152600080516020612f4d833981519152604482015290519081900360640190fd5b6103f73382610cd9565b50565b610130546001600160a01b031681565b60335460ff1690565b61041b6122ae565b81516001600160e01b0319166339d690a360e11b148061044c575081516001600160e01b03191663d8f960c160e01b145b80610468575081516001600160e01b03191663025ceed960e61b145b80610483575081516001600160e01b03191662737ea960e61b145b1561051e5760008084602001518060200190518101906104a391906126dc565b9150915060008085602001518060200190518101906104c291906126dc565b91509150816001600160a01b0316846001600160a01b03161480156104e657508083145b156105195750506040805180820190915284516001600160e01b0319168152602080860151908201529250610542915050565b505050505b50604080518082018252600080825282516020818101909452908152918101919091525b92915050565b610550610cd5565b6001600160a01b031661056161065c565b6001600160a01b0316146105aa576040805162461bcd60e51b81526020600482018190526024820152600080516020612f4d833981519152604482015290519081900360640190fd5b60fd546040516000916001600160a01b0316907f8be0079c531659141344cd1fd0a4f28419497f9722a3daafe3b4186f6b6457e0908390a360fd80546001600160a01b0319169055565b6105fc610cd5565b6001600160a01b031661060d61065c565b6001600160a01b031614610656576040805162461bcd60e51b81526020600482018190526024820152600080516020612f4d833981519152604482015290519081900360640190fd5b61012f55565b60fd546001600160a01b031690565b6101606020526000908152604090205481565b61012f5481565b61068d610cd5565b6001600160a01b031661069e61065c565b6001600160a01b0316146106e7576040805162461bcd60e51b81526020600482018190526024820152600080516020612f4d833981519152604482015290519081900360640190fd5b6000336001600160a01b03168260405161070090612968565b60006040518083038185875af1925050503d806000811461073d576040519150601f19603f3d011682016040523d82523d6000602084013e610742565b606091505b505090508061076c5760405162461bcd60e51b815260040161076390612c35565b60405180910390fd5b5050565b565b61077a610cd5565b6001600160a01b031661078b61065c565b6001600160a01b0316146107d4576040805162461bcd60e51b81526020600482018190526024820152600080516020612f4d833981519152604482015290519081900360640190fd5b6101316020527ffd23a7b9b5314a90813df2b64e60502a6b31b56b5df0686ee0049c8f7717bf7980546001600160a01b039384166001600160a01b03199182161790915563025ceed960e61b6000527f63c5e593bf2ee54e7cba16647235067582c7e8fc237b6736e61c9d87d0578cf78054929093169116179055565b80516001600160a01b0316610864610cd5565b6001600160a01b03161461088a5760405162461bcd60e51b815260040161076390612ca1565b600061089582610d77565b60008181526101606020908152604091829020600390558451908501515160608601515192519394507fbbdc98cb2835f4f846e6a63700d0498b4674f0e8858fd50c6379314227afa04e936108ed93869392916129e6565b60405180910390a15050565b610901610cd5565b6001600160a01b031661091261065c565b6001600160a01b03161461095b576040805162461bcd60e51b81526020600482018190526024820152600080516020612f4d833981519152604482015290519081900360640190fd5b6001600160a01b0381166109a05760405162461bcd60e51b8152600401808060200182810382526026815260200180612e946026913960400191505060405180910390fd5b60fd546040516001600160a01b038084169216907f8be0079c531659141344cd1fd0a4f28419497f9722a3daafe3b4186f6b6457e090600090a360fd80546001600160a01b0319166001600160a01b0392909216919091179055565b600054610100900460ff1680610a155750610a15610e4e565b80610a23575060005460ff16155b610a5e5760405162461bcd60e51b815260040180806020018281038252602e815260200180612edc602e913960400191505060405180910390fd5b600054610100900460ff16158015610a89576000805460ff1961ff0019909116610100171660011790555b610a91610e5f565b610a99610f00565b610aa1610ff9565b610aad858585856110cf565b8015610abf576000805461ff00191690555b5050505050565b60026099541415610b1e576040805162461bcd60e51b815260206004820152601f60248201527f5265656e7472616e637947756172643a207265656e7472616e742063616c6c00604482015290519081900360640190fd5b6002609955602082015151516001600160e01b0319166355575f5d60e11b14610b595760405162461bcd60e51b815260040161076390612ad1565b606084015151516001600160e01b0319166355575f5d60e11b14610b8f5760405162461bcd60e51b815260040161076390612ad1565b60408401516001600160a01b031615610bba5760405162461bcd60e51b815260040161076390612c5e565b60408201516001600160a01b031615610be55760405162461bcd60e51b815260040161076390612b27565b81516001600160a01b03163314610c0e5760405162461bcd60e51b815260040161076390612afd565b3484606001516020015114610c355760405162461bcd60e51b815260040161076390612a9a565b610c3f8484611207565b610c498282611207565b610c53848361124c565b5050610c5f84836112e6565b6000610c6a85610d77565b90506000610c7784610d77565b8651855160208901515160608a0151516040519495507f7980e0a70d0b16f81972215bd88d02e4599de4af5a3c8220130b37909e4da6b794610cc0948894889491939092612a2d565b60405180910390a15050600160995550505050565b3390565b6040516000906001600160a01b0384169083908381818185875af1925050503d8060008114610d24576040519150601f19603f3d011682016040523d82523d6000602084013e610d29565b606091505b5050905080610d72576040805162461bcd60e51b815260206004820152601060248201526f7472616e73666572206661696c65643160801b604482015290519081900360640190fd5b505050565b805160208201515160009190610d8c906114b3565b606084015151610d9b906114b3565b846080015160405160200180856001600160a01b0316815260200184815260200183815260200180602001828103825283818151815260200191508051906020019080838360005b83811015610dfb578181015183820152602001610de3565b50505050905090810190601f168015610e285780820380516001836020036101000a031916815260200191505b50955050505050506040516020818303038152906040528051906020012090505b919050565b6000610e593061151d565b15905090565b600054610100900460ff1680610e785750610e78610e4e565b80610e86575060005460ff16155b610ec15760405162461bcd60e51b815260040180806020018281038252602e815260200180612edc602e913960400191505060405180910390fd5b600054610100900460ff16158015610eec576000805460ff1961ff0019909116610100171660011790555b80156103f7576000805461ff001916905550565b600054610100900460ff1680610f195750610f19610e4e565b80610f27575060005460ff16155b610f625760405162461bcd60e51b815260040180806020018281038252602e815260200180612edc602e913960400191505060405180910390fd5b600054610100900460ff16158015610f8d576000805460ff1961ff0019909116610100171660011790555b6000610f97610cd5565b60fd80546001600160a01b0319166001600160a01b038316908117909155604051919250906000907f8be0079c531659141344cd1fd0a4f28419497f9722a3daafe3b4186f6b6457e0908290a35080156103f7576000805461ff001916905550565b600054610100900460ff16806110125750611012610e4e565b80611020575060005460ff16155b61105b5760405162461bcd60e51b815260040180806020018281038252602e815260200180612edc602e913960400191505060405180910390fd5b600054610100900460ff16158015611086576000805460ff1961ff0019909116610100171660011790555b610eec6040518060400160405280600e81526020016d13595d1854d85b1d13585c9ad95d60921b815250604051806040016040528060018152602001603160f81b815250611523565b600054610100900460ff16806110e857506110e8610e4e565b806110f6575060005460ff16155b6111315760405162461bcd60e51b815260040180806020018281038252602e815260200180612edc602e913960400191505060405180910390fd5b600054610100900460ff1615801561115c576000805460ff1961ff0019909116610100171660011790555b6101316020527ffd23a7b9b5314a90813df2b64e60502a6b31b56b5df0686ee0049c8f7717bf7980546001600160a01b038086166001600160a01b03199283161790925563025ceed960e61b6000527f63c5e593bf2ee54e7cba16647235067582c7e8fc237b6736e61c9d87d0578cf7805485841690831617905561012f8790556101308054928716929091169190911790558015610abf576000805461ff00191690555050505050565b600061121283610d77565b60008181526101606020526040902054909150156112425760405162461bcd60e51b815260040161076390612bd9565b610d7283836115e3565b6112546122ae565b61125c6122ae565b6020840151516060840151516112729190610413565b80519092506001600160e01b03191661129d5760405162461bcd60e51b815260040161076390612c09565b6060840151516020840151516112b39190610413565b80519091506001600160e01b031916156112df5760405162461bcd60e51b815260040161076390612c09565b9250929050565b8151815160608401516020015161012f54600090611313906103e89061130d908590611665565b906116c5565b6101305490915061132d906001600160a01b031682610cd9565b6020860151515160009081906001600160e01b0319166339d690a360e11b1415611390576113608860200151878761172c565b61136e8860200151856117d1565b92509050811561138b5761138b6001600160a01b038216836118bc565b61147d565b602088015151516001600160e01b03191663d8f960c160e01b14156113cc576113be88602001518787611955565b61136e8860200151856119cd565b602088015151516001600160e01b03191663025ceed960e61b1415611425576113fa88602001518787611a57565b611408886020015185611ab0565b92509050811561138b5761138b6001600160a01b03821683611ad2565b602088015151516001600160e01b03191662737ea960e61b141561147d5761145288602001518787611b6b565b611460886020015185611bc4565b92509050811561147d5761147d6001600160a01b03821683611ad2565b60006114938361148d8787611be6565b90611be6565b90506114a86001600160a01b03881682611c43565b505050505050505050565b8051602091820151805190830120604080517f452a0dc408cb0d27ffc3b3caff933a5208040a53a9dbecd8d89cad2c0d40e00c818601526001600160e01b031990931683820152606080840192909252805180840390920182526080909201909152805191012090565b3b151590565b600054610100900460ff168061153c575061153c610e4e565b8061154a575060005460ff16155b6115855760405162461bcd60e51b815260040180806020018281038252602e815260200180612edc602e913960400191505060405180910390fd5b600054610100900460ff161580156115b0576000805460ff1961ff0019909116610100171660011790555b82516020808501919091208351918401919091206065919091556066558015610d72576000805461ff0019169055505050565b81516001600160a01b03166115f6610cd5565b6001600160a01b03161461076c57600061160f83611cdc565b90506000825160411415611633576116308361162a84611d91565b90611ddd565b90505b83516001600160a01b0382811691161461165f5760405162461bcd60e51b815260040161076390612b6b565b50505050565b60008261167457506000610542565b8282028284828161168157fe5b04146116be5760405162461bcd60e51b8152600401808060200182810382526021815260200180612f2c6021913960400191505060405180910390fd5b9392505050565b600080821161171b576040805162461bcd60e51b815260206004820152601a60248201527f536166654d6174683a206469766973696f6e206279207a65726f000000000000604482015290519081900360640190fd5b81838161172457fe5b049392505050565b60008084600001516020015180602001905181019061174b91906126dc565b9150915084602001516001146117735760405162461bcd60e51b815260040161076390612bad565b6040516323b872dd60e01b81526001600160a01b038316906323b872dd906117a39087908790869060040161297f565b600060405180830381600087803b1580156117bd57600080fd5b505af11580156114a8573d6000803e3d6000fd5b60008083602001516001146117f85760405162461bcd60e51b815260040161076390612bad565b60008085600001516020015180602001905181019061181791906126dc565b9150915060008061182784611e5d565b156118af5760405163152a902d60e11b81526001600160a01b03851690632a55205a9061185a9086908b90600401612dfe565b604080518083038186803b15801561187157600080fd5b505afa158015611885573d6000803e3d6000fd5b505050506040513d601f19601f820116820180604052508101906118a991906126dc565b90925090505b9097909650945050505050565b6040516000906001600160a01b0384169083908381818185875af1925050503d8060008114611907576040519150601f19603f3d011682016040523d82523d6000602084013e61190c565b606091505b5050905080610d72576040805162461bcd60e51b815260206004820152601060248201526f3a3930b739b332b9103330b4b632b21960811b604482015290519081900360640190fd5b82602001516001146119795760405162461bcd60e51b815260040161076390612bad565b6000808460000151602001518060200190518101906119989190612605565b6040516383adacb560e01b815291935091506001600160a01b038316906383adacb5906117a390849088908890600401612d74565b60008083602001516001146119f45760405162461bcd60e51b815260040161076390612bad565b600080856000015160200151806020019051810190611a139190612605565b91509150600080611a2384611e5d565b156118af57825160405163152a902d60e11b81526001600160a01b03861691632a55205a9161185a91908b90600401612dfe565b600080846000015160200151806020019051810190611a7691906126dc565b91509150816001600160a01b031663f242432a85858489602001516040518563ffffffff1660e01b81526004016117a394939291906129a3565b60008060008085600001516020015180602001905181019061181791906126dc565b6040516000906001600160a01b0384169083908381818185875af1925050503d8060008114611b1d576040519150601f19603f3d011682016040523d82523d6000602084013e611b22565b606091505b5050905080610d72576040805162461bcd60e51b815260206004820152601060248201526f7472616e73666572206661696c65643360801b604482015290519081900360640190fd5b600080846000015160200151806020019051810190611b8a9190612532565b91509150816001600160a01b031663f8786f0f82868689602001516040518563ffffffff1660e01b81526004016117a39493929190612cd9565b600080600080856000015160200151806020019051810190611a139190612532565b600082821115611c3d576040805162461bcd60e51b815260206004820152601e60248201527f536166654d6174683a207375627472616374696f6e206f766572666c6f770000604482015290519081900360640190fd5b50900390565b6040516000906001600160a01b0384169083908381818185875af1925050503d8060008114611c8e576040519150601f19603f3d011682016040523d82523d6000602084013e611c93565b606091505b5050905080610d72576040805162461bcd60e51b815260206004820152601060248201526f1d1c985b9cd9995c8819985a5b19590d60821b604482015290519081900360640190fd5b60007f74841602ef8bc0259a135b606bb44132c0ebfdc1466501e566cd8098c5490c2c8260000151611d118460200151611ee5565b8460400151611d238660600151611ee5565b86608001518051906020012060405160200180878152602001866001600160a01b03168152602001858152602001846001600160a01b031681526020018381526020018281526020019650505050505050604051602081830303815290604052805190602001209050919050565b6000611d9b611f55565b82604051602001808061190160f01b81525060020183815260200182815260200192505050604051602081830303815290604052805190602001209050919050565b60008151604114611e35576040805162461bcd60e51b815260206004820152601f60248201527f45434453413a20696e76616c6964207369676e6174757265206c656e67746800604482015290519081900360640190fd5b60208201516040830151606084015160001a611e5386828585611f95565b9695505050505050565b6040516301ffc9a760e01b815260009081906001600160a01b038416906301ffc9a790611e959063152a902d60e11b90600401612a85565b60206040518083038186803b158015611ead57600080fd5b505afa158015611ec1573d6000803e3d6000fd5b505050506040513d601f19601f820116820180604052508101906116be9190612741565b60007fdb6f72e915676cfc289da13bc4ece054fd17b1df6d77ffc4a60510718c236b08611f1583600001516114b3565b8360200151604051602001808481526020018381526020018281526020019350505050604051602081830303815290604052805190602001209050919050565b6000611f907f8b73c3c69bb8fe3d512ecc4cf759cc79239f7b179b0ffacaa9a75d522b39400f611f836121eb565b611f8b6121f1565b6121f7565b905090565b60007f7fffffffffffffffffffffffffffffff5d576e7357a4501ddfe92f46681b20a0821115611ff65760405162461bcd60e51b8152600401808060200182810382526022815260200180612eba6022913960400191505060405180910390fd5b6000601e8560ff1611156120d0576004850360ff16601b148061201f57506004850360ff16601c145b61205a5760405162461bcd60e51b8152600401808060200182810382526022815260200180612f0a6022913960400191505060405180910390fd5b600161206587612259565b60048703868660405160008152602001604052604051808581526020018460ff1681526020018381526020018281526020019450505050506020604051602081039080840390855afa1580156120bf573d6000803e3d6000fd5b505050602060405103519050612187565b8460ff16601b14806120e557508460ff16601c145b6121205760405162461bcd60e51b8152600401808060200182810382526022815260200180612f0a6022913960400191505060405180910390fd5b60018686868660405160008152602001604052604051808581526020018460ff1681526020018381526020018281526020019450505050506020604051602081039080840390855afa15801561217a573d6000803e3d6000fd5b5050506020604051035190505b6001600160a01b0381166121e2576040805162461bcd60e51b815260206004820152601860248201527f45434453413a20696e76616c6964207369676e61747572650000000000000000604482015290519081900360640190fd5b95945050505050565b60655490565b60665490565b60008383836122046122aa565b3060405160200180868152602001858152602001848152602001838152602001826001600160a01b03168152602001955050505050506040516020818303038152906040528051906020012090509392505050565b604080517f19457468657265756d205369676e6564204d6573736167653a0a333200000000602080830191909152603c8083019490945282518083039094018452605c909101909152815191012090565b4690565b60408051808201909152600081526060602082015290565b8035610e4981612e7e565b8051610e4981612e7e565b600082601f8301126122ec578081fd5b81356122ff6122fa82612e30565b612e0c565b818152846020838601011115612313578283fd5b816020850160208301379081016020019190915292915050565b600082601f83011261233d578081fd5b815161234b6122fa82612e30565b81815284602083860101111561235f578283fd5b612370826020830160208701612e52565b949350505050565b600060408284031215612389578081fd5b6040516040810167ffffffffffffffff82821081831117156123a757fe5b816040528293508435915063ffffffff60e01b821682146123c757600080fd5b908252602084013590808211156123dd57600080fd5b506123ea858286016122dc565b6020830152505092915050565b600060408284031215612408578081fd5b6040516040810167ffffffffffffffff828210818311171561242657fe5b81604052829350843591508082111561243e57600080fd5b5061244b85828601612378565b825250602083013560208201525092915050565b600060a08284031215612470578081fd5b61247a60a0612e0c565b9050612485826122c6565b8152602082013567ffffffffffffffff808211156124a257600080fd5b6124ae858386016123f7565b60208401526124bf604085016122c6565b604084015260608401359150808211156124d857600080fd5b6124e4858386016123f7565b606084015260808401359150808211156124fd57600080fd5b5061250a848285016122dc565b60808301525092915050565b600060208284031215612527578081fd5b81356116be81612e7e565b60008060408385031215612544578081fd5b825161254f81612e7e565b602084015190925067ffffffffffffffff8082111561256c578283fd5b9084019060c0828703121561257f578283fd5b61258960c0612e0c565b8251815260208301518281111561259e578485fd5b6125aa8882860161232d565b602083015250604083015160408201526125c6606084016122d1565b60608201526080830151608082015260a0830151828111156125e6578485fd5b6125f28882860161232d565b60a0830152508093505050509250929050565b60008060408385031215612617578182fd5b825161262281612e7e565b602084015190925067ffffffffffffffff8082111561263f578283fd5b9084019060a08287031215612652578283fd5b60405160a08101818110838211171561266757fe5b6040528251815260208301518281111561267f578485fd5b61268b8882860161232d565b60208301525061269d604084016122d1565b6040820152606083015160608201526080830151828111156126bd578485fd5b6126c98882860161232d565b6080830152508093505050509250929050565b600080604083850312156126ee578182fd5b82516126f981612e7e565b6020939093015192949293505050565b6000806040838503121561271b578182fd5b823561272681612e7e565b9150602083013561273681612e7e565b809150509250929050565b600060208284031215612752578081fd5b815180151581146116be578182fd5b600060208284031215612772578081fd5b5035919050565b6000806040838503121561278b578182fd5b823567ffffffffffffffff808211156127a2578384fd5b6127ae86838701612378565b935060208501359150808211156127c3578283fd5b506127d085828601612378565b9150509250929050565b6000602082840312156127eb578081fd5b813567ffffffffffffffff811115612801578182fd5b6123708482850161245f565b60008060008060808587031215612822578182fd5b843567ffffffffffffffff80821115612839578384fd5b6128458883890161245f565b9550602087013591508082111561285a578384fd5b612866888389016122dc565b9450604087013591508082111561287b578384fd5b6128878883890161245f565b9350606087013591508082111561289c578283fd5b506128a9878288016122dc565b91505092959194509250565b600080600080608085870312156128ca578182fd5b8435935060208501356128dc81612e7e565b925060408501356128ec81612e7e565b915060608501356128fc81612e7e565b939692955090935050565b6001600160a01b03169052565b6000815180845261292c816020860160208601612e52565b601f01601f19169290920160200192915050565b600063ffffffff60e01b82511683526020820151604060208501526123706040850182612914565b90565b6001600160a01b0391909116815260200190565b6001600160a01b039384168152919092166020820152604081019190915260600190565b6001600160a01b0394851681529290931660208301526040820152606081019190915260a06080820181905260009082015260c00190565b901515815260200190565b8481526001600160a01b0384166020820152608060408201819052600090612a1090830185612940565b8281036060840152612a228185612940565b979650505050505050565b868152602081018690526001600160a01b0385811660408301528416606082015260c060808201819052600090612a6690830185612940565b82810360a0840152612a788185612940565b9998505050505050505050565b6001600160e01b031991909116815260200190565b60208082526018908201527f70726963652073686f756c6420626520636f7272656374210000000000000000604082015260600190565b60208082526012908201527137b7363c9022aa241039bab83837b93a399760711b604082015260600190565b60208082526010908201526f73686f756c642062652062757965722160801b604082015260600190565b60208082526024908201527f72696768744f726465722e74616b657220766572696669636174696f6e2066616040820152631a5b195960e21b606082015260800190565b60208082526022908201527f6f72646572207369676e617475726520766572696669636174696f6e2065727260408201526137b960f11b606082015260800190565b60208082526012908201527132b9319b9918903b30b63ab29032b93937b960711b604082015260600190565b60208082526016908201527527b93232b91029b437bab632103132902b30b634b21760511b604082015260600190565b6020808252601290820152710c2e6e6cae8e640c8dedc4ee840dac2e8c6d60731b604082015260600190565b6020808252600f908201526e1d1c985b9cd9995c8819985a5b1959608a1b604082015260600190565b60208082526023908201527f6c6566744f726465722e74616b657220766572696669636174696f6e206661696040820152621b195960ea1b606082015260800190565b6020808252600b908201526a3737ba10309036b0b5b2b960a91b604082015260600190565b6000602082526116be6020830184612940565b60006080825285516080830152602086015160c060a0840152612d00610140840182612914565b604088015160c085015260608801516001600160a01b031660e0850152608088015161010085015260a0880151848203607f1901610120860152909150612d478282612914565b92505050612d586020830186612907565b612d656040830185612907565b82606083015295945050505050565b60006060825284516060830152602085015160a06080840152612d9b610100840182612914565b60408701516001600160a01b0390811660a0860152606088015160c08601526080880151858303605f190160e0870152919250612dd88383612914565b935080871660208601528086166040860152505050949350505050565b90815260200190565b918252602082015260400190565b60405181810167ffffffffffffffff81118282101715612e2857fe5b604052919050565b600067ffffffffffffffff821115612e4457fe5b50601f01601f191660200190565b60005b83811015612e6d578181015183820152602001612e55565b8381111561165f5750506000910152565b6001600160a01b03811681146103f757600080fdfe4f776e61626c653a206e6577206f776e657220697320746865207a65726f206164647265737345434453413a20696e76616c6964207369676e6174757265202773272076616c7565496e697469616c697a61626c653a20636f6e747261637420697320616c726561647920696e697469616c697a656445434453413a20696e76616c6964207369676e6174757265202776272076616c7565536166654d6174683a206d756c7469706c69636174696f6e206f766572666c6f774f776e61626c653a2063616c6c6572206973206e6f7420746865206f776e6572a264697066735822122095fe7332607a8d051a0c8f59afe950f879314b853431122236d72275223609f764736f6c63430007060033",
  "immutableReferences": {},
  "source": "// SPDX-License-Identifier: MIT\n\npragma solidity 0.7.6;\npragma abicoder v2;\nimport \"./MarketCore.sol\";\nimport \"./TransferManager.sol\";\n\ncontract MetaSaltMarket is MarketCore {\n    function __MetaSaltMarket_init(\n        uint newProtocolFee,\n        address newDefaultFeeReceiver,\n        address transferERC721Proxy,\n        address transferERC1155Proxy        \n    ) external initializer {\n        __Context_init_unchained();\n        __Ownable_init_unchained();                \n        __OrderValidator_init_unchained();\n        __TransferManager_init_unchained(newProtocolFee, newDefaultFeeReceiver, transferERC721Proxy, transferERC1155Proxy);\n    }\n}",
  "sourcePath": "/Volumes/Data/MetaSalt/market/contracts/V1/MetaSaltMarket.sol",
  "compiler": {
    "name": "solc",
    "version": "0.7.6+commit.7338295f.Emscripten.clang"
  },
  "schemaVersion": "3.4.5",
  "updatedAt": "2022-12-14T08:20:18.650Z",
  "devdoc": {
    "kind": "dev",
    "methods": {
      "owner()": {
        "details": "Returns the address of the current owner."
      },
      "paused()": {
        "details": "Returns true if the contract is paused, and false otherwise."
      },
      "renounceOwnership()": {
        "details": "Leaves the contract without owner. It will not be possible to call `onlyOwner` functions anymore. Can only be called by the current owner. NOTE: Renouncing ownership will leave the contract without an owner, thereby removing any functionality that is only available to the owner."
      },
      "transferOwnership(address)": {
        "details": "Transfers ownership of the contract to a new account (`newOwner`). Can only be called by the current owner."
      }
    },
    "version": 1
  },
  "userdoc": {
    "kind": "user",
    "methods": {},
    "version": 1
  }
}