{
  "contractName": "TestRoyaltyEngine",
  "abi": [
    {
      "inputs": [
        {
          "internalType": "address",
          "name": "tokenAddress",
          "type": "address"
        },
        {
          "internalType": "uint256",
          "name": "tokenId",
          "type": "uint256"
        },
        {
          "internalType": "uint256",
          "name": "value",
          "type": "uint256"
        }
      ],
      "name": "getRoyalty",
      "outputs": [
        {
          "internalType": "address payable[]",
          "name": "recipients",
          "type": "address[]"
        },
        {
          "internalType": "uint256[]",
          "name": "amounts",
          "type": "uint256[]"
        }
      ],
      "stateMutability": "nonpayable",
      "type": "function"
    },
    {
      "inputs": [
        {
          "internalType": "address",
          "name": "tokenAddress",
          "type": "address"
        },
        {
          "internalType": "uint256",
          "name": "tokenId",
          "type": "uint256"
        },
        {
          "internalType": "uint256",
          "name": "value",
          "type": "uint256"
        }
      ],
      "name": "getRoyaltyView",
      "outputs": [
        {
          "internalType": "address payable[]",
          "name": "recipients",
          "type": "address[]"
        },
        {
          "internalType": "uint256[]",
          "name": "amounts",
          "type": "uint256[]"
        }
      ],
      "stateMutability": "view",
      "type": "function"
    }
  ],
  "bytecode": "0x608060405234801561001057600080fd5b506101dc806100206000396000f3fe608060405234801561001057600080fd5b50600436106100365760003560e01c80633e1040141461003b578063f533b8021461003b575b600080fd5b61006d6004803603606081101561005157600080fd5b506001600160a01b038135169060208101359060400135610106565b604051808060200180602001838103835285818151815260200191508051906020019060200280838360005b838110156100b1578181015183820152602001610099565b50505050905001838103825284818151815260200191508051906020019060200280838360005b838110156100f05781810151838201526020016100d8565b5050505090500194505050505060405180910390f35b6040805160018082528183019092526060918291906020808301908036833701905050915073fcc6f84bf615b0a2001b2e73315d285745fb38218260008151811061014d57fe5b6001600160a01b039290921660209283029190910182015260408051600180825281830190925291828101908036833701905050905060038160008151811061019257fe5b60200260200101818152505093509391505056fea264697066735822122017e7248fed095135aab52be93460e7d492c0abd8a81826123265845852083bdb64736f6c63430007060033",
  "immutableReferences": {},
  "source": "// SPDX-License-Identifier: MIT\n\npragma solidity 0.7.6;\nimport \"../interfaces/IRoyaltyEngine.sol\";\n\ncontract TestRoyaltyEngine is IRoyaltyEngine{\n    function getRoyalty(address tokenAddress, uint256 tokenId, uint256 value) public override returns(address payable[] memory recipients, uint256[] memory amounts) {\n        recipients = new address payable[](1);\n        recipients[0] = 0xfcC6f84bF615B0A2001B2e73315d285745Fb3821;\n        amounts = new uint256[](1);\n        amounts[0] = 3;\n    }\n\n    function getRoyaltyView(address tokenAddress, uint256 tokenId, uint256 value) public view override returns(address payable[] memory recipients, uint256[] memory amounts) {\n        recipients = new address payable[](1);\n        recipients[0] = 0xfcC6f84bF615B0A2001B2e73315d285745Fb3821;\n        amounts = new uint256[](1);\n        amounts[0] = 3;\n    }\n}\n",
  "sourcePath": "/Volumes/Data/MetaSalt/market/contracts/V2/test/TestRoyaltyEngine.sol",
  "compiler": {
    "name": "solc",
    "version": "0.7.6+commit.7338295f.Emscripten.clang"
  },
  "schemaVersion": "3.4.5",
  "updatedAt": "2022-12-14T08:20:18.714Z",
  "devdoc": {
    "kind": "dev",
    "methods": {},
    "version": 1
  },
  "userdoc": {
    "kind": "user",
    "methods": {},
    "version": 1
  }
}