{
  "contractName": "TransferManagerV2",
  "abi": [
    {
      "anonymous": false,
      "inputs": [
        {
          "indexed": true,
          "internalType": "address",
          "name": "previousOwner",
          "type": "address"
        },
        {
          "indexed": true,
          "internalType": "address",
          "name": "newOwner",
          "type": "address"
        }
      ],
      "name": "OwnershipTransferred",
      "type": "event"
    },
    {
      "inputs": [],
      "name": "defaultFeeReceiver",
      "outputs": [
        {
          "internalType": "address",
          "name": "",
          "type": "address"
        }
      ],
      "stateMutability": "view",
      "type": "function"
    },
    {
      "inputs": [],
      "name": "owner",
      "outputs": [
        {
          "internalType": "address",
          "name": "",
          "type": "address"
        }
      ],
      "stateMutability": "view",
      "type": "function"
    },
    {
      "inputs": [],
      "name": "protocolFee",
      "outputs": [
        {
          "internalType": "uint256",
          "name": "",
          "type": "uint256"
        }
      ],
      "stateMutability": "view",
      "type": "function"
    },
    {
      "inputs": [],
      "name": "renounceOwnership",
      "outputs": [],
      "stateMutability": "nonpayable",
      "type": "function"
    },
    {
      "inputs": [],
      "name": "royaltyRegister",
      "outputs": [
        {
          "internalType": "address",
          "name": "",
          "type": "address"
        }
      ],
      "stateMutability": "view",
      "type": "function"
    },
    {
      "inputs": [
        {
          "internalType": "address",
          "name": "newOwner",
          "type": "address"
        }
      ],
      "name": "transferOwnership",
      "outputs": [],
      "stateMutability": "nonpayable",
      "type": "function"
    },
    {
      "inputs": [
        {
          "internalType": "address",
          "name": "_newRoyaltyRegister",
          "type": "address"
        }
      ],
      "name": "setRoyaltyRegister",
      "outputs": [],
      "stateMutability": "nonpayable",
      "type": "function"
    },
    {
      "inputs": [
        {
          "internalType": "address",
          "name": "transferERC721Proxy",
          "type": "address"
        },
        {
          "internalType": "address",
          "name": "transferERC1155Proxy",
          "type": "address"
        }
      ],
      "name": "setTransferProxy",
      "outputs": [],
      "stateMutability": "nonpayable",
      "type": "function"
    },
    {
      "inputs": [
        {
          "internalType": "uint256",
          "name": "newProtocolFee",
          "type": "uint256"
        }
      ],
      "name": "setProtocolFee",
      "outputs": [],
      "stateMutability": "nonpayable",
      "type": "function"
    },
    {
      "inputs": [
        {
          "internalType": "address payable",
          "name": "newDefaultFeeReceiver",
          "type": "address"
        }
      ],
      "name": "setDefaultFeeReceiver",
      "outputs": [],
      "stateMutability": "nonpayable",
      "type": "function"
    }
  ],
  "bytecode": "0x608060405234801561001057600080fd5b506106a6806100206000396000f3fe608060405234801561001057600080fd5b506004361061009e5760003560e01c80638da5cb5b116100665780638da5cb5b146101045780639f81cd131461010c578063b0e21e8a14610114578063d56afca614610129578063f2fde38b1461013c5761009e565b80631cdfe3d8146100a35780633abf6fd4146100b8578063481fd505146100d6578063715018a6146100e9578063787dce3d146100f1575b600080fd5b6100b66100b1366004610582565b61014f565b005b6100c06101d3565b6040516100cd91906105f5565b60405180910390f35b6100b66100e4366004610582565b6101e2565b6100b6610266565b6100b66100ff3660046105dd565b610312565b6100c0610379565b6100c0610388565b61011c610397565b6040516100cd9190610609565b6100b66101373660046105a5565b61039d565b6100b661014a366004610582565b61047b565b61015761057e565b6001600160a01b0316610168610379565b6001600160a01b0316146101b1576040805162461bcd60e51b81526020600482018190526024820152600080516020610651833981519152604482015290519081900360640190fd5b606680546001600160a01b0319166001600160a01b0392909216919091179055565b6066546001600160a01b031681565b6101ea61057e565b6001600160a01b03166101fb610379565b6001600160a01b031614610244576040805162461bcd60e51b81526020600482018190526024820152600080516020610651833981519152604482015290519081900360640190fd5b606880546001600160a01b0319166001600160a01b0392909216919091179055565b61026e61057e565b6001600160a01b031661027f610379565b6001600160a01b0316146102c8576040805162461bcd60e51b81526020600482018190526024820152600080516020610651833981519152604482015290519081900360640190fd5b6033546040516000916001600160a01b0316907f8be0079c531659141344cd1fd0a4f28419497f9722a3daafe3b4186f6b6457e0908390a3603380546001600160a01b0319169055565b61031a61057e565b6001600160a01b031661032b610379565b6001600160a01b031614610374576040805162461bcd60e51b81526020600482018190526024820152600080516020610651833981519152604482015290519081900360640190fd5b606555565b6033546001600160a01b031690565b6068546001600160a01b031681565b60655481565b6103a561057e565b6001600160a01b03166103b6610379565b6001600160a01b0316146103ff576040805162461bcd60e51b81526020600482018190526024820152600080516020610651833981519152604482015290519081900360640190fd5b60676020527f2b93c2f634949a7e021732550c1bb9602ac4e1f201265985ae19f923744d709680546001600160a01b039384166001600160a01b03199182161790915563025ceed960e61b6000527fcf0c83824f56f46766986919cc0f7aae82ef1731771abe43cb490969d3e6d9ee8054929093169116179055565b61048361057e565b6001600160a01b0316610494610379565b6001600160a01b0316146104dd576040805162461bcd60e51b81526020600482018190526024820152600080516020610651833981519152604482015290519081900360640190fd5b6001600160a01b0381166105225760405162461bcd60e51b815260040180806020018281038252602681526020018061062b6026913960400191505060405180910390fd5b6033546040516001600160a01b038084169216907f8be0079c531659141344cd1fd0a4f28419497f9722a3daafe3b4186f6b6457e090600090a3603380546001600160a01b0319166001600160a01b0392909216919091179055565b3390565b600060208284031215610593578081fd5b813561059e81610612565b9392505050565b600080604083850312156105b7578081fd5b82356105c281610612565b915060208301356105d281610612565b809150509250929050565b6000602082840312156105ee578081fd5b5035919050565b6001600160a01b0391909116815260200190565b90815260200190565b6001600160a01b038116811461062757600080fd5b5056fe4f776e61626c653a206e6577206f776e657220697320746865207a65726f20616464726573734f776e61626c653a2063616c6c6572206973206e6f7420746865206f776e6572a264697066735822122076d367d3b6c7941e4e13ac3674f27454df47f2cfdf968bb17200f1d2c862e26a64736f6c63430007060033",
  "immutableReferences": {},
  "source": "// SPDX-License-Identifier: MIT\n\npragma solidity 0.7.6;\npragma abicoder v2;\n\nimport \"@openzeppelin/contracts-upgradeable/token/ERC721/IERC721Upgradeable.sol\";\nimport \"@openzeppelin/contracts-upgradeable/math/SafeMathUpgradeable.sol\";\nimport \"@openzeppelin/contracts-upgradeable/proxy/Initializable.sol\";\nimport \"@openzeppelin/contracts-upgradeable/access/OwnableUpgradeable.sol\";\nimport \"@openzeppelin/contracts-upgradeable/introspection/IERC165Upgradeable.sol\";\nimport \"../common/lib/LibERC721LazyMint.sol\";\nimport \"../common/lib/LibERC1155LazyMint.sol\";\nimport \"../common/interfaces/IERC721LazyMint.sol\";\nimport \"./interfaces/IRoyaltyEngine.sol\";\nimport \"../common/interfaces/IERC1155LazyMint.sol\";\nimport \"../common/lib/LibAsset.sol\";\n\ncontract TransferManagerV2 is Initializable, OwnableUpgradeable {    \n    using SafeMathUpgradeable for uint;\n\n    uint public protocolFee;    \n    address public defaultFeeReceiver;            \n    mapping (bytes4 => address) proxies;    \n    bytes4 private constant _INTERFACE_ID_ERC2981 = 0x2a55205a;        \n\n    function __TransferManager_init_unchained(        \n        uint newProtocolFee,\n        address newDefaultFeeReceiver,\n        address transferERC721Proxy,\n        address transferERC1155Proxy         \n    ) internal initializer {\n        proxies[LibAsset.ERC721_ASSET_CLASS] = transferERC721Proxy;\n        proxies[LibAsset.ERC1155_ASSET_CLASS] = transferERC1155Proxy;\n        protocolFee = newProtocolFee;\n        defaultFeeReceiver = newDefaultFeeReceiver;           \n    }\n\n    function checkRoyalties(address _contract) internal view returns (bool) {\n        (bool success) = IERC165Upgradeable(_contract).supportsInterface(_INTERFACE_ID_ERC2981);\n        return success;\n    }\n\n    function setRoyaltyRegister(address _newRoyaltyRegister) external onlyOwner{\n        royaltyRegister = _newRoyaltyRegister;\n    }\n\n    function setTransferProxy(address transferERC721Proxy, address transferERC1155Proxy) external onlyOwner{\n        proxies[LibAsset.ERC721_ASSET_CLASS] = transferERC721Proxy;\n        proxies[LibAsset.ERC1155_ASSET_CLASS] = transferERC1155Proxy;\n    }\n\n    function setProtocolFee(uint newProtocolFee) external onlyOwner {\n        protocolFee = newProtocolFee;\n    }\n\n    function setDefaultFeeReceiver(address payable newDefaultFeeReceiver) external onlyOwner {\n        defaultFeeReceiver = newDefaultFeeReceiver;\n    }\n\n    function getFeeReceiver() internal view returns (address) {\n        return defaultFeeReceiver;\n    }\n\n    function transferERC721(LibAsset.Asset memory asset, address from, address to) internal {     \n        (address token, uint tokenId) = abi.decode(asset.assetType.data, (address, uint256));\n        require(asset.value == 1, \"erc721 value error\");   \n        IERC721Upgradeable(token).transferFrom(from, to, tokenId);\n    }\n\n    function transferERC1155(LibAsset.Asset memory asset, address from, address to) internal {     \n        (address token, uint tokenId) = abi.decode(asset.assetType.data, (address, uint256));        \n        IERC1155Upgradeable(token).safeTransferFrom(from, to, tokenId, asset.value, \"\");\n    }\n\n    function getRoyaltyInfoERC721(LibAsset.Asset memory asset, uint256 price) internal view returns (address payable[] memory creators, uint256[] memory royaltyFees) {\n        require(asset.value == 1, \"erc721 value error\");\n        (address token, uint256 tokenId) = abi.decode(asset.assetType.data, (address, uint256));\n        (creators, royaltyFees) = IRoyaltyEngine(royaltyRegister).getRoyaltyView(token, tokenId, price);        \n        return (creators, royaltyFees);\n    }\n\n    function getRoyaltyInfoERC721Lazy(LibAsset.Asset memory asset, uint256 price) internal view returns (address payable[] memory creators, uint256[] memory royaltyFees) {\n        require(asset.value == 1, \"erc721 value error\");\n        (address token, LibERC721LazyMint.Mint721Data memory data) = abi.decode(asset.assetType.data, (address, LibERC721LazyMint.Mint721Data));\n        (creators, royaltyFees) = IRoyaltyEngine(royaltyRegister).getRoyaltyView(token, data.tokenId, price);    \n        return (creators, royaltyFees);\n    }\n\n    function getRoyaltyInfoERC1155(LibAsset.Asset memory asset, uint256 price) internal view returns (address payable[] memory creators, uint256[] memory royaltyFees) {\n        (address token, uint tokenId) = abi.decode(asset.assetType.data, (address, uint256));\n        (creators, royaltyFees) = IRoyaltyEngine(royaltyRegister).getRoyaltyView(token, tokenId, price);       \n        return (creators, royaltyFees);\n    }\n\n    function getRoyaltyInfoERC1155Lazy(LibAsset.Asset memory asset, uint256 price) internal view returns (address payable[] memory creators, uint256[] memory royaltyFees) {\n        (address token, LibERC1155LazyMint.Mint1155Data memory data) = abi.decode(asset.assetType.data, (address, LibERC1155LazyMint.Mint1155Data));\n        (creators, royaltyFees) = IRoyaltyEngine(royaltyRegister).getRoyaltyView(token, data.tokenId, price);    \n        return (creators, royaltyFees);\n    }\n\n    function transferERC721LazyMint(LibAsset.Asset memory asset, address from, address to) internal {\n        require(asset.value == 1, \"erc721 value error\");\n        (address token, LibERC721LazyMint.Mint721Data memory data) = abi.decode(asset.assetType.data, (address, LibERC721LazyMint.Mint721Data));\n        IERC721LazyMint(token).transferFromOrMint(data, from, to);\n    }\n\n    function transferERC1155LazyMint(LibAsset.Asset memory asset, address from, address to) internal {        \n        (address token, LibERC1155LazyMint.Mint1155Data memory data) = abi.decode(asset.assetType.data, (address, LibERC1155LazyMint.Mint1155Data));\n        IERC1155LazyMint(token).transferFromOrMint(data, from, to, asset.value);\n    }        \n    address public royaltyRegister;        \n    uint256[45] private __gap;\n}\n",
  "sourcePath": "/Volumes/Data/MetaSalt/market/contracts/V2/TransferManagerV2.sol",
  "compiler": {
    "name": "solc",
    "version": "0.7.6+commit.7338295f.Emscripten.clang"
  },
  "schemaVersion": "3.4.5",
  "updatedAt": "2022-12-14T08:20:18.706Z",
  "devdoc": {
    "kind": "dev",
    "methods": {
      "owner()": {
        "details": "Returns the address of the current owner."
      },
      "renounceOwnership()": {
        "details": "Leaves the contract without owner. It will not be possible to call `onlyOwner` functions anymore. Can only be called by the current owner. NOTE: Renouncing ownership will leave the contract without an owner, thereby removing any functionality that is only available to the owner."
      },
      "transferOwnership(address)": {
        "details": "Transfers ownership of the contract to a new account (`newOwner`). Can only be called by the current owner."
      }
    },
    "version": 1
  },
  "userdoc": {
    "kind": "user",
    "methods": {},
    "version": 1
  }
}